:100000000C942A000C94670B0C94900B0C94B90B75
:100010000C9447000C9447000C9447000C94470044
:100020000C9447000C9447000C94AE0C0C944700C1
:100030000C9447000C94370D0C9447000C94470027
:100040000C9447000C9447000C9447000C94470014
:100050000C94470011241FBECFE5D8E0DEBFCDBF12
:1000600011E0A0E6B0E0E4EAF1E202C005900D92F2
:10007000AE33B107D9F721E0AEE3B1E001C01D9284
:10008000A53DB207E1F70E944E000C94B9100C9404
:10009000000081E080933E010C949D07CDB7DEB750
:1000A000AC970FB6F894DEBF0FBECDBF8E010F5FC9
:1000B0001F4F81E2F80111928A95E9F70E941D0C09
:1000C0000E94130B81E00E94E20B60EA76E881E077
:1000D00090E00E94C20A8AE090E00E94280C41E071
:1000E00062E082E00E94E30941E063E082E00E9476
:1000F000E30941E064E082E00E94E30941E065E059
:1001000082E00E94E30941E067E082E00E94E309A7
:1001100041E062E082E00E94390A40E063E082E070
:100120000E94390A66E081E00E94B50942E062E07F
:1001300083E00E94E30942E063E083E00E94E30978
:1001400042E066E083E00E94E30963E080E00E9411
:10015000190B69E470E080E00E94570B80E00E9478
:10016000390B0E94CE070E945C070E9457060E942E
:100170002E060E9406050E94DC020E94CE020E940A
:10018000970460E070E080E00E941407812C912CBD
:10019000512CB12C412C1AA612010BA71CA7CE0181
:1001A00084968EA39FA3FE01B296E8A7F9A73E010D
:1001B000FAE06F0E711C8091D2018130E1F710924C
:1001C000D2018FEF281A380A0E94810989839A8305
:1001D0000E9454098E839F83BE016C5D7F4F82E035
:1001E0000E94CA09EEA0FFA020E030E0892B61F454
:1001F0002CA13DA1A0E2BEE40E94610D2FEF33E0EF
:1002000040E050E00E94840D2887398789819A81D7
:100210000E94A3098B83BE016E5D7F4F83E00E9425
:10022000CA0908A5D9A420E0892B61F42AA13BA121
:10023000A4E6B0E00E94610D2FEF33E040E050E013
:100240000E94840D2D830E94F504888B0E94D702A2
:100250008F871D860E948C06880F892F881F990B17
:1002600091959A8980FB92F99A8BA70162E083E0CD
:100270000E94A00A402F5D2D66E083E00E94A00A44
:1002800091E08AA1811190E08A8990FB81F98A8BA3
:100290008CA1813031F480933E010E949D0710E0D3
:1002A0000AC010923E01FBCF40E050E0612FC30135
:1002B0000E940D041F5F812F0E94F306803009F415
:1002C00051C01E3008F04EC0E12FF0E0E554FF4E63
:1002D0000C94A60D0E94A10415E0EDCF0E94AC0481
:1002E00016E0E9CF8A8988608A8B91E09B8B0E9417
:1002F0009D070E944B0617E0DECF8A8984608A8BB7
:1003000018E0D9CF41E050E060E0C3010E940D0445
:1003100019E0D1CF41E050E061E0C3010E940D043B
:100320001AE0C9CF42E050E061E0C3010E940D0431
:100330001BE0C1CF41E050E062E0C3010E940D0428
:100340001CE0B9CF42E050E062E0C3010E940D041E
:100350001DE0B1CF42E050E063E0C3010E940D0414
:100360001EE0A9CF1F5F103109F0A5CF90913E018B
:100370008A89903009F475C088608A8BE1E0EB8B44
:10038000402F5D2D63E083E00E94A00A81E09AA1E6
:10039000911180E06D810E94B8040E94F504888B61
:1003A000843009F066C0F9E0FB8B8EE08F878A8984
:1003B00081FF7CC01A861B861C869B81903009F4C5
:1003C00066C0982F98702889922B09F060C0B114EC
:1003D00009F454C0BB24B39492E0892E912C8BA5D0
:1003E0009CA50E94AC058BA59CA50E9441059A89FD
:1003F000292F2A708B89822B09F4BCC00E943506F4
:10040000512C4A88C10169E170E00E94700D892B6E
:10041000C9F4FAA581E0F827FAA76D8570E08B8111
:100420000E941407C888D12CEB88F12C0E811F8103
:1004300029813A814D8550E0AAA46B818FE391E038
:100440000E945408C10168EC70E00E94700D892B75
:1004500011F40E94F30245FA442440F80E947B0301
:10046000AACE877F8A8B8B89813009F089CF1B8A3E
:1004700087CF81119CCF0E944B0699CF1C828F7D24
:100480008A8B69817A8180E00E941C05A3CF0E943B
:1004900039051D868B819889892B9A899870892BBB
:1004A00011F40E94A104812C912C99CF8870B888F6
:1004B000B82A29F01D860E943905B12CF4CFA40179
:1004C0006B81C3010E94BC03F62CE72C892B51F4ED
:1004D0006B81C3010E9432040E9439058B818C8399
:1004E000812C912CA4016B818F2D9E2D0E944C0498
:1004F0004C01892BD9F10B8111E0100F91E0891685
:10050000910481F0E2E08E16910471F4102F2BC05B
:1005100041E050E0612F8F2D9E2D0E94BC03892B5E
:1005200021F01F5F1430A0F3102F8B81811779F019
:100530008C81811303C08A8985FF09C01C838A8945
:100540008F7D8A8B69817A81812F0E941C058D861F
:1005500046CF115042E050E0612F8F2D9E2D0E941A
:10056000BC03892B11F31111F4CFDECF1D860E943D
:100570003905EDCF95FF07C0411005C00E94320636
:100580008AE0582E3ECF511431F05A9409F039CFF9
:100590000E94380636CF0E94380632CF82E0809320
:1005A0006000109261000E9497040C945C07809197
:1005B00060009091610008951092620110925F01B5
:1005C000109260011092610160E875E280E090E0B5
:1005D0000E94D40C81E00E94280D8DE593E00E94DA
:1005E000300D0C94130B82E690E00C940A0D1F93CF
:1005F000CF93DF93EC010097E1F145E050E067E62F
:1006000070E00E94C30D892BA1F145E050E06DE63A
:1006100070E0CE010E94C30D892B79F51D81105326
:10062000143038F58E81803221F5279663E770E02B
:10063000CE010E94B30D41E050E0892B49F066E7FE
:1006400070E0CE010E94B30D892B51F442E050E0DE
:10065000612F8FE591E0DF91CF911F910C940D04F4
:100660006BE770E0CE010E94B30D40E050E0892BB3
:1006700079F3DF91CF911F91089542E050E06FE749
:1006800070E0CE010E94C30D892B91F042E050E052
:1006900062E870E0CE010E94C30D892B49F042E070
:1006A00050E065E870E0CE010E94C30D892B09F788
:1006B000DF91CF911F910C94F302E09162018D3094
:1006C00011F08A3069F4E030A9F0F0E0ED59FE4F06
:1006D000108283E691E00E94F70210926201089571
:1006E000EF3140F491E09E0F90936201F0E0ED59FC
:1006F000FE4F80830895CF93DF930F92CDB7DEB77F
:100700000E94230D892B41F41982CE0101960E948B
:10071000FD0C89810E945D030F90DF91CF910895B8
:10072000FC01892B89F0633078F490818181982BCA
:100730008281982B6F5F2FEF01C0220F6A95EAF735
:100740009223892F8F70089580E00895FC01892BF2
:1007500089F08FEF860F833068F490818181982B28
:100760008281892B21E001C0220F6A95EAF721508E
:100770008223089580E00895009709F44BC0643007
:1007800008F048C0FC01208130E0062E02C03695FA
:1007900027950A94E2F720FD0DC04130510579F408
:1007A000218130E0062E02C0369527950A94E2F7A3
:1007B00020FF1FC091E081E0892790E0089542303A
:1007C000504031F5228130E0062E02C03695279543
:1007D0000A94E2F720FDEECF218130E0062E02C020
:1007E000369527950A94E2F720FF12C00E94A603CF
:1007F0000CC0228130E0062E02C0369527950A945F
:10080000E2F720FF05C00E94900391E0803099F24A
:1008100090E0D1CF81E090E00895FC01892BF9F0C0
:1008200081E090E06430D0F49C0101C0220F6A9511
:10083000EAF74130510551F04230510559F0452B4E
:1008400071F48081822B808380E008958181822BE6
:100850008183FACF8281822B8283F6CF089581E053
:1008600090E00895FC0181E090E0309799F06430C9
:1008700090F401C0880F6A95EAF7809590819823DB
:10088000908391819823918392818923828380E050
:1008900090E00895089508950F931F93CF93DF93E9
:1008A00000D00F92CDB7DEB78C0169834A835B839A
:1008B00041305040B9F40E949003811109C0698110
:1008C000C8010E94A6038030E9F022E02A831B823F
:1008D0008A819B810F900F900F90DF91CF911F9194
:1008E0000F9108952A813B812230304029F469819B
:1008F0000E94A6038111ECCF6981C8010E94900378
:10090000811112C06981C8010E94A60321E02A83D7
:100910001B82811102C01A821B828A819B81880FEF
:10092000991F8A839B83D4CF81E090E0FACF109205
:10093000840110928501109283010E9457060C9445
:100940004B0681E090E080938401109285010E9423
:1009500073068CE30C943A0683E090E08093840164
:100960001092850182E00E9473068CE30C943A0693
:1009700020918401309185012430310511F40C94CB
:100980004B068030D9F0809183018F5F8093830183
:10099000833030F084E08093840110928501EFCFA2
:1009A00023303105F1F481E090E0809384011092CE
:1009B00085010E94730682E30C943A06109283012B
:1009C0002130310521F46F3578F082E0E4CF233017
:1009D000304051F4663040F4109284011092850149
:1009E000CECF2130304079F30895809184019091E9
:1009F00085010895E8E8F1E080E1DF011D928A9524
:100A0000E9F7109287011092860108950C94FA0478
:100A10002091860190918701E92FF0E09F5F9F7000
:100A2000E857FE4F808390938701203120F42F5F99
:100A300020938601089508958430C0F4E82FF0E0F3
:100A4000EE0FFF1FEF5CFE4F8081918180939C0130
:100A500090939D0110929A0110929B01109299011E
:100A600081E08093980180E090E0089581E090E03B
:100A700008951092980110929A0110929B010C9483
:100A800072070F931F93CF93DF93EC01892B59F1DA
:100A900080919801803039F18E858E50823018F027
:100AA0008A89803031F0DF91CF911F910F910C94A2
:100AB00039050881198180919C0190919D01081749
:100AC0001907B0F49C01201B310B890181E004302F
:100AD0001105A0F40E947207188A1C868989806219
:100AE000898B10929801DF91CF911F910F910895FA
:100AF00089F380F3081B190B82E0E9CF99899F7D68
:100B0000998B8C8790E00E9479070031110558F489
:100B100089E08E878FE0888B6C81DF91CF911F9168
:100B20000F910C9492070D33104020F488E08E87CB
:100B30008EE1F1CF87E08E8780919A0190919B01A1
:100B40008233910538F4019680939A0190939B012A
:100B5000880FE1CF84E6DFCFCF93DF93EC01892BC1
:100B6000C9F0298923FF0AC081E08A8B8FE08E8734
:100B700081E090E0DF91CF910C9408058881998104
:100B80008E3E934050F083E08A8B90E00E940805EF
:100B90008EE08E87DF91CF9108958C81863038F07A
:100BA0008889803021F089E08A8B90E0EFCF8F81B7
:100BB000988589393AE3930778F080919E01909166
:100BC0009F01019680939E0190939F01C297A0F090
:100BD00086E08A8B90E0DACF10929E0110929F01FE
:100BE000813B964348F48A89863031F41A8A8E858F
:100BF0008E3011F482E08E878D819E81843833E0BF
:100C00009307B8F089898160898B82E08A8B90E0B4
:100C10000E9408058E85823019F0843009F0BACF21
:100C20008BE08E8741E067E082E0DF91CF910C940A
:100C3000390A20FFAFCF8335934008F0ABCF8989C5
:100C40008E7F898B1A8A40E067E082E00E94390A31
:100C50008E858B3009F09ECF82E09BCF0E94810C65
:100C60000C94A40C83E20C94870C80E50C94870C04
:100C70000C94A40C853608F084E6282F30E0AFE110
:100C8000B3E00E94610D24E640E050E00E94840D34
:100C900039BD28BD089519BC18BC40E062E081E070
:100CA0000E94390A40E063E081E00C94390A41E097
:100CB00062E081E00E94E30941E063E081E00E949C
:100CC000E30941E064E083E00E94E3090E944B06EF
:100CD00082E28FBD89E18EBD8FE193E097BD86BD35
:100CE00019BC18BC08958130910551F440E063E0CF
:100CF00081E00E94390A41E062E081E00C94390A07
:100D0000029741F440E062E081E00E94390A41E04C
:100D100063E0F3CF0C944B060F931F93CF93DF93B5
:100D20000F92CDB7DEB740E062E082E00E94390A60
:100D300041E062E082E00E94390A64E081E00E94C2
:100D4000170CBE016F5F7F4F8FEF0E94080C098167
:100D5000BE016F5F7F4F8FEF0E94080C2981302FFB
:100D6000890164E081E00E941A0C009510952091A1
:100D7000A3013091A4012017310799F48091A001BB
:100D80008230B8F48F5F8093A001823091F080911F
:100D9000A5019091A6010F90DF91CF911F910F9126
:100DA00008950093A3011093A40181E08093A00112
:100DB000EECF8091A5019091A6012817390739F34C
:100DC00080959095822393234091A1015091A20197
:100DD000842B952B8093A1019093A2012093A501D0
:100DE0003093A601D4CF982F8031E0F44091A10137
:100DF0005091A2019A0102C0369527958A95E2F793
:100E0000822F817021E030E002C0220F331F9A95BB
:100E1000E2F720953095242335232093A1013093C8
:100E2000A201089580E008950F931F93CF93DF935D
:100E30000F92CDB7DEB78B01843020F5E82FF0E0BC
:100E4000E75CFE4FBE016F5F7F4F80810E94080C00
:100E500041E063E082E00E94390A40E063E082E022
:100E60000E94390A0130110599F002301040C1F496
:100E700041E065E082E00E94390A40E064E082E0FF
:100E80000E94390A0F90DF91CF911F910F91089521
:100E900041E064E082E00E94390A40E065E0EFCF83
:100EA00040E0F7CF40E060E081E00E94390A40E096
:100EB00061E081E00C94390A41E060E081E00E9449
:100EC000E30941E061E081E00E94E30941E065E07F
:100ED00083E00E94E3090E94520760E080E197E20C
:100EE0000C94440C60E080E197E20E94440C0C9466
:100EF00052078130910551F440E061E081E00E94A9
:100F0000390A41E060E081E00C94390A029741F42B
:100F100040E060E081E00E94390A41E061E0F3CF07
:100F20000C94720761110C947207682F853608F0D3
:100F300064E680E197E20C94440C0C947207CF9322
:100F4000DF9300D00F92CDB7DEB789830E94E30A0A
:100F50008A839B83892B99F48EE30E94F40A8A8307
:100F60009B83892B61F480E00E94040B8A839B831E
:100F7000892B29F489810E94040B8A839B830E9418
:100F8000F10A8A819B810F900F900F90DF91CF9192
:100F9000089541E067E083E00C94390A88E30E94F9
:100FA0009F07892B11F00E94C90788E30E949F07C1
:100FB000892B11F00E94C9078CE00E949F07892BA2
:100FC00011F00E94C90781E00E949F07892B11F050
:100FD0000E94C90786E00E949F07892B11F00E949A
:100FE000C90782E00E949F07892B11F00C94C90762
:100FF0000895CF93DF9300D00F92CDB7DEB78983EA
:101000000E94E30A8A839B83892B99F48EE30E94D2
:10101000F40A8A839B83892B61F480E40E94040B89
:101020008A839B83892B29F489810E94040B8A83FC
:101030009B830E94F10A8A819B810F900F900F90F1
:10104000DF91CF910895EF92FF920F931F93CF936B
:10105000DF9327EAE22E21E0F22E8C01C0E0F701B7
:1010600081917F01F801D1918F018D1799F080E373
:101070008C0FC03108F48C2F80680E949F0781E09C
:1010800090E00E94280C8D2F0E94F907F8018291B0
:10109000F7018293CF5FC03211F7DF91CF911F919B
:1010A0000F91FF90EF9008954F925F926F927F9211
:1010B0008F929F92AF92BF92CF92DF92EF92FF9268
:1010C0000F931F93CF93DF93CDB7DEB7A6970FB6DD
:1010D000F894DEBF0FBECDBF4C016CA32DA33EA381
:1010E000B02E712E6C2C5D2C892B09F49CC04130E4
:1010F000510509F447C04230504009F446C02DE282
:101100002BA36E0122E1C20ED11C40E150E060E24F
:1011100070E0C6010E94AC0D40E150E060E270E07A
:101120008E010F5F1F4FC8010E94AC0D1AA2198AD1
:101130008EA18F939DA19F932BA1922F990F990B15
:101140009F932F932CA11F922F9388E890E09F9359
:101150008F931F9281E1482E4F92DF92CF920E948F
:10116000D10D0FB6F894DEBF0FBECDBFF70131979A
:10117000FC2CED2CE930F10508F08BC0E753FF4E55
:101180000C94A60D8EE58BA3BCCF96E79BA3B9CF9D
:10119000A11499F07F92BF9287E990E09F938F937B
:1011A0001F9281E18F931F930F930E94D10D0FB671
:1011B000F894DEBF0FBECDBF23C05F926F927F92C7
:1011C000BF9284EA90E09F938F931F9281E18F9367
:1011D0001F930F930E94D10DEACF64EB70E0A11032
:1011E0000CC05F926F927F92BF9284EC90E0EBCF45
:1011F00096E963ED70E0A916A0F7C8010E94BC0D46
:1012000080E1EF2DFE2DD40101900D928A95E1F73A
:10121000D401509680E1F80101900D928A95E1F792
:10122000C4010E942308A6960FB6F894DEBF0FBE35
:10123000CDBFDF91CF911F910F91FF90EF90DF9085
:10124000CF90BF90AF909F908F907F906F905F9066
:101250004F9008956FED70E0A110CFCFC2CF6CEE2C
:1012600070E0A110CACFBDCF6CEF70E0A110C5CF68
:10127000B8CF6AE071E0A110C0CFB3CF64E171E0F4
:10128000A110BBCFAECFA11409F4ABCF65E271E0E2
:10129000B4CF5F926F927F92BF9284EC90E09F9365
:1012A0008F931F924F9294CFCF93DF9300D0CDB7FF
:1012B000DEB719821A82BE016F5F7F4F81E00E9404
:1012C000CA09892B49F01092C70180E090E00F9085
:1012D0000F90DF91CF91089581E08093C70129811C
:1012E0003A81343010F02FEF33E0A8EEB3E00E94E3
:1012F000610D2FEF33E040E050E00E94840DC90102
:10130000E6CFCF93DF9300D0CDB7DEB7BE016F5FDE
:101310007F4F80E00E94CA09892B91F429813A818C
:10132000A8EEB3E00E94610D2FEF33E040E050E003
:101330000E94840DC9010F900F90DF91CF91089505
:1013400080E090E0F8CF8639910548F0823C21E0BA
:10135000920738F08E3E924030F482E0089580E0AB
:10136000089581E0089583E00895823010F083307D
:1013700071F49FEF960F973050F48295880F880F85
:10138000807C87B9606866B980E090E0089581E06C
:1013900090E008958830A0F46030760789F097B126
:1013A000907E982B97B9349A369A3699FECF349A14
:1013B00084B125B1FB018083218380E090E0089512
:1013C00081E090E00895843008F050C0683008F063
:1013D0004DC08230E9F0833001F1813019F1AAE388
:1013E000B0E0EBE3F0E0413011F1423081F1411126
:1013F0003DC02C9181E001C0880F6A95EAF7809585
:1014000028232C9390818923808380E090E00895A5
:10141000A4E3B0E0E5E3F0E0E6CFA1E3B0E0E2E38F
:10142000F0E0E1CFA7E3B0E0E8E3F0E0DCCF2C911F
:1014300081E090E0AC0101C0440F6A95EAF7642FA7
:10144000242B2C938081609568236083DECF2C91C0
:1014500081E090E0AC0101C0440F6A95EAF7842F67
:10146000809582238C938081842BCECF81E090E085
:101470000895843008F061C0683008F05EC08230A2
:1014800091F1833009F444C08130C1F0413059F406
:101490008BB321E001C0220F6A95EAF7822B8BBB48
:1014A00080E090E0089508F048C02BB381E001C0CF
:1014B000880F6A95EAF780958223F1CF413049F48D
:1014C00088B321E001C0220F6A95EAF7822B88BB1E
:1014D000E7CF98F528B381E001C0880F6A95EAF755
:1014E00080958223F4CF413049F485B321E001C0D7
:1014F000220F6A95EAF7822B85BBD2CFF0F425B391
:1015000081E001C0880F6A95EAF780958223F4CFC5
:10151000413049F482B321E001C0220F6A95EAF715
:10152000822B82BBBDCF48F422B381E001C0880F7B
:101530006A95EAF780958223F4CF81E090E00895E0
:10154000FA018430E0F46830D0F43097C1F0823092
:1015500091F0833091F0813061F089B390E002C066
:10156000959587956A95E2F78170808380E090E099
:10157000089586B3F3CF83B3F1CF80B3EFCF81E08B
:1015800090E008959B01AC012030320742075207DA
:10159000B9F060E072E18AE790E00E94840D20518A
:1015A000304040405040569547953795279520B993
:1015B0000898099886B7846086BF80E090E0089517
:1015C00081E090E0089584EA86BF06B607FEFDCF6D
:1015D00091B1987F21E030E0983009F420E0C90112
:1015E000089584E986BF0895880F83B984E886BF8B
:1015F00006B607FEFDCF91B1987F21E030E098312B
:1016000009F420E0C901089583B984E886BF06B6CD
:1016100007FEFDCF91B1987F21E030E0983209F4C8
:1016200020E0C90108958FB780688FBF80E090E007
:101630000895813059F0823071F0811117C085B75B
:101640006370862B85BF80E090E0089585B7660FB4
:10165000660F6C70F6CF623021F484B78F7B84BF45
:10166000F2CF633019F484B78064F9CF81E090E061
:101670000895813069F0823089F0811115C08AB7F0
:1016800080648ABF8BB780648BBF80E090E0089550
:101690008AB780688ABF8BB78068F6CF8AB78062C6
:1016A0008ABF8BB78062F0CF81E090E008958330ED
:1016B00058F4E82FF0E0EE0FFF1FE853FE4F608371
:1016C000718380E090E0089581E090E008951F929A
:1016D0000F920FB60F9211242F933F934F935F9366
:1016E0006F937F938F939F93AF93BF93EF93FF93EA
:1016F000E091C801F091C901309709F00995FF9177
:10170000EF91BF91AF919F918F917F916F915F9179
:101710004F913F912F910F900FBE0F901F901895F2
:101720001F920F920FB60F9211242F933F934F9356
:101730005F936F937F938F939F93AF93BF93EF9339
:10174000FF93E091CA01F091CB01309709F0099520
:10175000FF91EF91BF91AF919F918F917F916F9189
:101760005F914F913F912F910F900FBE0F901F905F
:1017700018951F920F920FB60F9211242F933F933B
:101780004F935F936F937F938F939F93AF93BF9389
:10179000EF93FF93E091CC01F091CD01309709F0E8
:1017A0000995FF91EF91BF91AF919F918F917F919B
:1017B0006F915F914F913F912F910F900FBE0F90BE
:1017C0001F901895CF93C82F81E090E0C430F0F4BB
:1017D00041E064E081E00E94E30941E065E081E0EE
:1017E0000E94E30940E066E081E00E94E30941E0F5
:1017F00067E081E00E94E30941E064E081E00E944B
:10180000390AC065CDB9709880E090E0CF91089515
:101810006030760749F08FB9779BFECF8FB1FB011F
:10182000808380E090E0089581E090E0089540E0BA
:101830000C94390A41E00C94390A8DE083BF8DE4A1
:101840008CBF12BE89B7826089BF80E090E00895A6
:101850004091CE015091CF016091D0017091D101A2
:10186000480F591F611D711D8091CE019091CF01CC
:10187000A091D001B091D10184179507A607B707B1
:1018800098F380E090E008951F93CF93DF93EC01ED
:10189000162F653698F5409781319E4478F541E0E2
:1018A00065E083E00E94E3099FB5907392689FBD55
:1018B00088E18EBD9E0140E050E060E072E18AE781
:1018C00090E00E94840D2150304037BD26BD26B5E2
:1018D00037B5A12FB0E00E94610D24E630E040E072
:1018E00050E00E94840D3BBD2ABD8EB581608EBD47
:1018F00080E090E0DF91CF911F91089581E090E02A
:10190000F9CF15BC14BC13BC80E090E00895CF93D0
:10191000C82F81E090E0C536A8F441E067E083E09D
:101920000E94E3098CE685BD2C2F30E0AFEFB0E0DC
:101930000E94610D24E640E050E00E94840D23BD2A
:1019400080E090E0CF91089585B5887F85BD85B50D
:101950008F7C85BD13BC80E090E008951F921FB678
:101960001F9211248F939F93AF93BF938091CE01C9
:101970009091CF01A091D001B091D1010A96A11D03
:10198000B11D8093CE019093CF01A093D001B0936D
:10199000D10181E08093D201BF91AF919F918F914E
:1019A0001F901FBE1F901895009770406040E1F097
:1019B0009B01AC0184E0220F331F441F551F8A9501
:1019C000D1F760E072E18AE790E00E94840D215037
:1019D000304030BD29B980B5866880BD8AB1886144
:1019E0008AB980E090E0089581E090E008955D9BE1
:1019F000FECF8CB980E090E00895009741F05F9BA6
:101A0000FECF2CB1FC01208380E090E0089581E0BE
:101A100090E008950F931F93CF938C01C0E0892B22
:101A200031F481E090E00BC00E94F70CCF5FF80129
:101A3000EC0FF11D80818111F7CF80E090E0CF9114
:101A40001F910F91089588275F9B839590E00895DB
:101A5000811104C0579880E090E00895579AFBCF19
:101A60008093D3019093D40180E090E008951F9279
:101A70000F920FB60F9211242F933F934F935F93C2
:101A80006F937F938F939F93AF93BF93EF93FF9346
:101A90008CB1E091D301F091D401309709F0099510
:101AA000FF91EF91BF91AF919F918F917F916F9136
:101AB0005F914F913F912F910F900FBE0F901F900C
:101AC0001895A29FB001B39FC001A39F700D811D07
:101AD0001124911DB29F700D811D1124911D089537
:101AE000AA1BBB1B51E107C0AA1FBB1FA617B70744
:101AF00010F0A61BB70B881F991F5A95A9F7809560
:101B00009095BC01CD010895A1E21A2EAA1BBB1B22
:101B1000FD010DC0AA1FBB1FEE1FFF1FA217B307B9
:101B2000E407F50720F0A21BB30BE40BF50B661FCF
:101B3000771F881F991F1A9469F760957095809593
:101B400090959B01AC01BD01CF010895EE0FFF1FE1
:101B50000590F491E02D0994DC0101C06D93415092
:101B60005040E0F70895FB01DC018D910190801950
:101B70000110D9F3990B0895FB01DC0101900D923E
:101B80000020E1F70895FB01DC014150504030F0A6
:101B90008D910190801919F40020B9F7881B990BD9
:101BA0000895AEE0B0E0E7EDFDE00C9490100D89F3
:101BB0001E8986E08C831A8309838F89988D8130F2
:101BC00020E8920710F080E090E801979E838D83D3
:101BD000AE01455E5F4F698D7A8DCE0101960E9400
:101BE000030E4D815E8157FD0AC02F813885421753
:101BF00053070CF49A01020F131FF80110822E965E
:101C0000E4E00C94AC10ABE0B0E0E9E0FEE00C9452
:101C100085106C017B018A01FC0117821682838189
:101C200081FFC9C19AE0592EF6012381F70123FDF6
:101C3000859123FF81917F01811509F459C1853276
:101C400039F423FD959123FF91917F01953229F479
:101C5000B60190E00E94F40FE7CF912C612C712C1B
:101C6000F0E27F1640F59B32D9F058F49032D1F073
:101C70009332F1F09E3299F576FC3AC1689476F889
:101C800006C09D3291F09033C1F4689470F8F7016A
:101C900023FD959123FF91917F019111E1CF26C002
:101CA000689471F8689472F8F2CF689473F8EFCF83
:101CB000689474F8ECCF77FC19C080ED890F8A30F6
:101CC000C8F676FE05C0959C800D1124982EDFCFB6
:101CD000659C800D1124682E689475F8D8CF9C36C9
:101CE00019F4689477F8D3CF983689F2892F8F7DCD
:101CF0008554833008F488C0933609F4A4C0933720
:101D000009F4A7C0933509F4B3C0943619F0993695
:101D100009F0DDC0F80177FED3C061917191819126
:101D200091918F01272D2F76822E97FF09C09095D4
:101D30008095709561957F4F8F4F9F4F689487F87E
:101D40002AE030E0AE014F5F5F4F5A010E9424103D
:101D50008A19A82EBA2C782C86FE0CC0E89470F84C
:101D6000A91440F484FE05C082FC03C0F82DFE7E59
:101D70007F2EB92C74FEF8C0FE01EA0DF11D8081A2
:101D8000803309F0EAC0272D297E722E73FC0EC025
:101D900070FEF9C09A2CB61418F4960C9B18B62C49
:101DA000862D8B196B1408F480E0B80EB61408F079
:101DB000ECC06B1874FEEBC0B60180E390E00E94AB
:101DC000F40F72FE09C088E590E071FC02C088E75C
:101DD00090E0B6010E94F40FA91408F4E5C0AA949B
:101DE000B12C4FEFA41AB40ACE0101964C01A80EF3
:101DF000B91EF50182915F01B60190E00E94F40FD7
:101E00008A149B04B1F715C00C5F1F4F8FE38983C1
:101E100088248394912CAE014F5F5F4F5A01E89460
:101E200077F873FC03C08614910498F1811491042F
:101E3000B9F5611409F4F8CEB60180E290E00E9491
:101E4000F40F6A94F6CFF801808189830E5F1F4FEB
:101E5000DFCFF801A190B1908F01692D70E076FC81
:101E600002C06FEF7FEFC5010E94E90F4C01D7CF91
:101E7000F801A190B1908F01692D70E076FC02C04D
:101E80006FEF7FEFC5010E94DE0F4C01689477F879
:101E9000C8CFB60180E290E00E94F40F6A94C3CFED
:101EA000F50177FC859177FE81915F01B60190E0A5
:101EB0000E94F40F61106A94F1E08F1A9108B6CF76
:101EC00061917191072E000C880B990B2ACF872CFA
:101ED000E89484F82AE030E0953739F1572D597F9E
:101EE000852E9037A9F058F49835A9F09F36D9F08F
:101EF000F601868197812B96EFE00C94A11098371C
:101F0000B9F784FE02C0689482F820E130E00DC089
:101F1000689484F8F6CF74FE03C0852F8660882EFF
:101F200020E132E002C028E030E0F80187FE10C076
:101F300061917191819191918F01FE0131965F01C3
:101F4000AF010E9424108A19A82EE89487F802CFC6
:101F50006191719180E090E0EFCF72FC02C0B39488
:101F600015CFB394B39412CF872D8678811509F4D9
:101F70000DCFF5CFB60180E290E00E94F40F83947C
:101F80008614C0F30DCF8B2CFBCF612C13CF872D84
:101F90008678811509F420CF80E271FC8BE277FC12
:101FA0008DE2B60190E016CFB60180E390E00E948A
:101FB000F40F9A9411CF8FEF9FEF9DCFFC01059006
:101FC000615070400110D8F7809590958E0F9F1F3B
:101FD0000895FC016150704001900110D8F7809580
:101FE00090958E0F9F1F08950F931F93CF93DF93AC
:101FF000182F092FEB018B8181FD09C01FEF0FEF17
:10200000812F902FDF91CF911F910F91089582FF23
:1020100014C02E813F818C819D81281739073CF4A3
:10202000E881F981CF0101969983888310838E819D
:102030009F8101969F838E83E3CFE885F985812F69
:102040000995892BA1F3DACFFA01AA27283051F19B
:10205000203181F1E8946F936E7F6E5F7F4F8F4FD9
:102060009F4FAF4FB1E03ED0B4E03CD0670F781F38
:10207000891F9A1FA11D680F791F8A1F911DA11D1D
:102080006A0F711D811D911DA11D20D009F4689456
:102090003F912AE0269F11243019305D3193DEF6FE
:1020A000CF010895462F4770405D4193B3E00FD0B4
:1020B000C9F7F6CF462F4F70405D4A3318F0495D9F
:1020C00031FD4052419302D0A9F7EACFB4E0A69582
:1020D0009795879577956795BA95C9F700976105A4
:1020E000710508959B01AC010A2E069457954795FA
:1020F00037952795BA95C9F7620F731F841F951FEF
:10210000A01D08952F923F924F925F926F927F92FF
:102110008F929F92AF92BF92CF92DF92EF92FF92F7
:102120000F931F93CF93DF93CDB7DEB7CA1BDB0BA3
:102130000FB6F894DEBF0FBECDBF09942A88398848
:1021400048885F846E847D848C849B84AA84B9844F
:10215000C884DF80EE80FD800C811B81AA81B9815B
:10216000CE0FD11D0FB6F894DEBF0FBECDBFED016F
:102170000895F894FFCF54015401540154016A01A9
:102180006E0172017D0182018A0192019A01A20110
:10219000AA01ED08C808F8082F0934092A093E09E0
:0421A00043093909AD
:1021A40002004F4B0D0A0050414745200043414C6B
:1021B4004C2000555000444F574E004341520043B9
:1021C4004300485500484400464C257520256320AB
:1021D400503A2575636D00214F5645524C4F41448A
:1021E400202575004C443A257520443A2575205322
:1021F400544F500021454D455247454E43592053B5
:10220400544F50004C443A257520443A2575204DCE
:102214004F5600214F56455254524156454C0021C9
:102224004F56455243555252454E54002154524143
:1022340056454C2054494D454F55540021444F4F69
:10224400522054494D454F55540021444F4F52207C
:102254004A414D0021504F534954494F4E20534554
:102264004E534F5200214C4556454C204641494C53
:0E2274000000002C01580284033F065B4F005F
:00000001FF
