:100000000C942A000C9458000C9481000C94AA00C3
:100010000C9447000C9447000C9447000C94470044
:100020000C9447000C9447000C9447000C94470034
:100030000C9447000C9447000C9447000C94470024
:100040000C9447000C9447000C9447000C94470014
:100050000C94470011241FBECFE5D8E0DEBFCDBF12
:1000600010E0A0E6B0E0E6EAF2E002C005900D92F2
:10007000AE36B107D9F720E0AEE6B0E001C01D9280
:10008000A437B207E1F70E9449000C9451010C9487
:10009000000060E875E280E090E00E94ED0080E6FC
:1000A00090E00E94160180ED97E00E94D300F7CF08
:1000B0001F920F920FB60F9211242F933F934F93DD
:1000C0005F936F937F938F939F93AF93BF93EF93C0
:1000D000FF93E0916E00F0916F00309709F0099561
:1000E000FF91EF91BF91AF919F918F917F916F9110
:1000F0005F914F913F912F910F900FBE0F901F90E6
:1001000018951F920F920FB60F9211242F933F93C1
:100110004F935F936F937F938F939F93AF93BF930F
:10012000EF93FF93E0917000F0917100309709F028
:100130000995FF91EF91BF91AF919F918F917F9121
:100140006F915F914F913F912F910F900FBE0F9044
:100150001F9018951F920F920FB60F9211242F9394
:100160003F934F935F936F937F938F939F93AF933F
:10017000BF93EF93FF93E0917200F091730030977B
:1001800009F00995FF91EF91BF91AF919F918F91E8
:100190007F916F915F914F913F912F910F900FBE83
:1001A0000F901F901895AC0198B7926098BF93B7C5
:1001B000936093BF20E030E082E02417350731F4EC
:1001C00083B7887F83BF80E090E0089508B601FE82
:1001D000FDCF88BF2F5F3F4FF0CF0097704060404A
:1001E000E1F09B01AC0184E0220F331F441F551F37
:1001F0008A95D1F760E072E18AE790E00E942F01D2
:100200002150304030BD29B980B5866880BD8AB1A3
:1002100088618AB980E090E0089581E090E00895D7
:100220005D9BFECF8CB980E090E008950F931F9303
:10023000CF938C01C0E0892B31F481E090E00BC0BA
:100240000E941001CF5FF801EC0FF11D8081811138
:10025000F7CF80E090E0CF911F910F910895A1E238
:100260001A2EAA1BBB1BFD010DC0AA1FBB1FEE1F30
:10027000FF1FA217B307E407F50720F0A21BB30B7B
:10028000E40BF50B661F771F881F991F1A9469F7F7
:1002900060957095809590959B01AC01BD01CF0153
:0602A0000895F894FFCF61
:0E02A60048656C6C6F20576F726C642100000D
:00000001FF
