:100000000C942A000C94090B0C94320B0C945B0B8F
:100010000C9447000C9447000C9447000C94470044
:100020000C9447000C9447000C94500C0C9447001F
:100030000C9447000C94D90C0C9447000C94470086
:100040000C9447000C9447000C9447000C94470014
:100050000C94470011241FBECFE5D8E0DEBFCDBF12
:1000600011E0A0E6B0E0E6EDF0E202C005900D92EE
:10007000A233B107D9F721E0A2E3B1E001C01D929C
:10008000A63CB207E1F70E944E000C9452100C946B
:10009000000081E0809332010C943F07CDB7DEB7BA
:1000A000AC970FB6F894DEBF0FBECDBF8E010F5FC9
:1000B0001F4F81E2F80111928A95E9F70E94BF0B68
:1000C0000E94B50A81E00E94840B60EA76E881E034
:1000D00090E00E94640A8AE090E00E94CA0B41E02E
:1000E00062E082E00E94850941E063E082E00E94D4
:1000F000850941E064E082E00E94850941E065E015
:1001000082E00E94850941E067E082E00E94850963
:1001100041E062E082E00E94DB0940E063E082E0CF
:100120000E94DB0966E081E00E94570942E062E03C
:1001300083E00E94850942E063E083E00E94850934
:1001400042E066E083E00E94850963E080E00E946F
:10015000BB0A69E470E080E00E94F90A80E00E9436
:10016000DB0A0E9470070E94FE060E94F9050E94A9
:10017000D0050E94C6040E94D2020E94C4020E94BE
:10018000570460E070E080E00E94B606812C912C5C
:10019000512CB12C412C1AA612010BA71CA7CE0181
:1001A00084968EA39FA3FE01B296E8A7F9A73E010D
:1001B000FAE06F0E711C8091C3018130E1F710925B
:1001C000C3018FEF281A380A0E94230989839A8372
:1001D0000E94F6088E839F83BE016C5D7F4F82E094
:1001E0000E946C09EEA0FFA020E030E0892B61F4B2
:1001F0002CA13DA1A0E2BEE40E94030D2FEF33E04D
:1002000040E050E00E94260D2887398789819A8135
:100210000E9445098B83BE016E5D7F4F83E00E9483
:100220006C0908A5D9A420E0892B61F42AA13BA17F
:10023000A4E6B0E00E94030D2FEF33E040E050E071
:100240000E94260D2D830E94B504888B0E94CD024A
:100250008F871D860E942E06880F892F881F990B75
:1002600091959A8980FB92F99A8BA70162E083E0CD
:100270000E94420A402F5D2D66E083E00E94420A00
:1002800091E08AA1811190E08A8990FB81F98A8BA3
:100290008CA1813031F4809332010E943F0710E03D
:1002A0000AC010923201FBCF40E050E0612FC30141
:1002B0000E94CD031F5F812F0E949506803009F4B4
:1002C00051C01E3008F04EC0E12FF0E0EC5AFF4E56
:1002D0000C94480D0E94610415E0EDCF0E946C045F
:1002E00016E0E9CF8A8988608A8B91E09B8B0E9417
:1002F0003F070E94ED0517E0DECF8A8984608A8B74
:1003000018E0D9CF41E050E060E0C3010E94CD0386
:1003100019E0D1CF41E050E061E0C3010E94CD037C
:100320001AE0C9CF42E050E061E0C3010E94CD0372
:100330001BE0C1CF41E050E062E0C3010E94CD0369
:100340001CE0B9CF42E050E062E0C3010E94CD035F
:100350001DE0B1CF42E050E063E0C3010E94CD0355
:100360001EE0A9CF1F5F103109F0A5CF9091320197
:100370008A89903009F472C088608A8BE1E0EB8B47
:10038000402F5D2D63E083E00E94420A81E09AA144
:10039000911180E06D810E9478040E94B504888BE1
:1003A000811102C00E94ED058A8981FF77C01A86FB
:1003B0001B861C869B81903009F461C0982F987031
:1003C0002889922B09F05BC0B11409F44FC0BB24FB
:1003D000B39492E0892E912C8BA59CA50E94580580
:1003E0008BA59CA50E94ED049A89292F2A708B89E0
:1003F000822B09F4B5C00E94D705512C4A88C1014F
:1004000069E170E00E94120D892BC9F49AA5E1E020
:100410009E279AA76D8570E08B810E94B606C888DA
:10042000D12CEB88F12C0E811F8129813A814D85D9
:1004300050E0AAA46B8183E391E00E94F607C1011A
:1004400068EC70E00E94120D892B11F40E94E10209
:1004500045FA442440F80E943B03ADCE877F8A8B47
:100460008B89813009F08CCF1B8A8ACF1C828F7DCB
:100470008A8B69817A8180E00E94C804A8CF0E949B
:10048000E5041D868B819889892B9A899870892B20
:1004900011F40E946104812C912C9ECF8870B88841
:1004A000B82A29F01D860E94E504B12CF4CFA401DE
:1004B0006B81C3010E947C03F62CE72C892B51F43D
:1004C0006B81C3010E94F2030E94E5048B818C833F
:1004D000812C912CA4016B818F2D9E2D0E940C04E8
:1004E0004C010097C9F10B8111E0100F019781F0C9
:1004F00082E08816910471F4102F2BC041E050E087
:10050000612F8F2D9E2D0E947C03892B21F01F5F70
:100510001430A0F3102F8B81811779F08C81811317
:1005200003C08A8985FF09C01C838A898F7D8A8BD5
:1005300069817A81812F0E94C8048D864DCF115028
:1005400042E050E0612F8F2D9E2D0E947C03892B6D
:1005500011F31111F4CFDECF1D860E94E504EDCF1B
:1005600095FF07C0411005C00E94D4058AE0582EAF
:1005700045CF511431F05A9409F040CF0E94DA056A
:100580003DCF0E94DA0539CF82E08093600010925F
:1005900061000E9457040C94FE06809160009091C7
:1005A0006100089560E875E280E090E00E94760CBA
:1005B00081E00E94CA0C8DE193E00E94D20C0C9461
:1005C000B50A82E690E00C94AC0CCF93DF93EC017B
:1005D000009781F145E050E067E670E00E945C0D15
:1005E000892B41F145E050E06DE670E0CE010E94BC
:1005F0005C0D892BF9F042E050E063E770E0CE013A
:100600000E945C0D892B91F042E050E066E770E0BB
:10061000CE010E945C0D892B49F042E050E069E771
:1006200070E0CE010E945C0D892B21F4DF91CF9107
:100630000C94E102DF91CF910895E09153018D3048
:1006400011F08A3069F4E030A9F0F0E0EC5AFE4F86
:10065000108284E591E00E94E50210925301089512
:10066000EF3140F491E09E0F90935301F0E0EC5A8B
:10067000FE4F80830895CF93DF930F92CDB7DEB7FF
:100680000E94C50C892B41F41982CE0101960E946B
:100690009F0C89810E941D030F90DF91CF910895D7
:1006A000FC01892B89F0633078F490818181982B4B
:1006B0008281982B6F5F2FEF01C0220F6A95EAF7B6
:1006C0009223892F8F70089580E00895FC01892B73
:1006D00089F08FEF860F833068F490818181982BA9
:1006E0008281892B21E001C0220F6A95EAF721500F
:1006F0008223089580E00895009709F44BC0643088
:1007000008F048C0FC01208130E0062E02C036957A
:1007100027950A94E2F720FD0DC04130510579F488
:10072000218130E0062E02C0369527950A94E2F723
:1007300020FF1FC091E081E0892790E008954230BA
:10074000504031F5228130E0062E02C036952795C3
:100750000A94E2F720FDEECF218130E0062E02C0A0
:10076000369527950A94E2F720FF12C00E9466038F
:100770000CC0228130E0062E02C0369527950A94DF
:10078000E2F720FF05C00E94500391E0803099F20B
:1007900090E0D1CF81E090E00895FC01892BF9F041
:1007A00081E090E06430D0F49C0101C0220F6A9592
:1007B000EAF74130510551F04230510559F0452BCF
:1007C00071F48081822B808380E008958181822B67
:1007D0008183FACF8281822B8283F6CF089581E0D4
:1007E00090E00895FC0181E090E0309799F064304A
:1007F00090F401C0880F6A95EAF78095908198235C
:10080000908391819823918392818923828380E0D0
:1008100090E00895089508950F931F93CF93DF9369
:1008200000D00F92CDB7DEB78C0169834A835B831A
:1008300041305040B9F40E945003811109C06981D0
:10084000C8010E9466038030E9F022E02A831B82FF
:100850008A819B810F900F900F90DF91CF911F9114
:100860000F9108952A813B812230304029F469811B
:100870000E9466038111ECCF6981C8010E94500378
:10088000811112C06981C8010E94660321E02A8398
:100890001B82811102C01A821B828A819B81880F70
:1008A000991F8A839B83D4CF81E090E0FACF109286
:1008B000750110927601109274010E94F9050C9452
:1008C000ED0581E090E080937501109276010E9421
:1008D00015068CE30C94DC0583E090E080937501B1
:1008E0001092760182E00E9415068CE30C94DC05E0
:1008F00020917501309176012430310511F40C946A
:10090000ED058030D9F0809174018F5F8093740180
:10091000833030F084E08093750110927601EFCF40
:1009200023303105F1F481E090E08093750110925D
:1009300076010E94150682E30C94DC051092740186
:100940002130310521F46F3578F082E0E4CF233097
:10095000304051F4663040F41092750110927601E7
:10096000CECF2130304079F3089580917501909178
:1009700076010895E9E7F1E080E1DF011D928A95B3
:10098000E9F7109278011092770108950C94BA0457
:100990008430C0F4E82FF0E0EE0FFF1FEB5DFE4F58
:1009A0008081918180938D0190938E0110928B01B3
:1009B00010928C0110928A0181E08093890180E07D
:1009C00090E0089581E090E00895109289011092DE
:1009D0008B0110928C010C9414070F931F93CF93EB
:1009E000DF93EC01892B59F180918901803039F135
:1009F0008E858E50823018F08A89803031F0DF91F8
:100A0000CF911F910F910C94E50408811981809179
:100A10008D0190918E0108171907B0F49C01201BDD
:100A2000310B890181E004301105A0F40E94140704
:100A3000188A1C8689898062898B10928901DF91CE
:100A4000CF911F910F91089589F380F3081B190B23
:100A500082E0E9CF99899F7D998B8C8790E00E94F5
:100A60001B070031110558F489E08E878FE0888BD1
:100A70006C81DF91CF911F910F910C9434070D334E
:100A8000104020F488E08E878EE1F1CF87E08E87DA
:100A900080918B0190918C018233910538F40196FD
:100AA00080938B0190938C01880FE1CF84E6DFCF98
:100AB000CF93DF93EC01892B39F0298923FF07C0FD
:100AC00081E08A8B8FE08E87DF91CF9108958881B6
:100AD00099818E3E934020F083E08A8B8EE0F3CFA5
:100AE0008C81863028F08889803011F089E0F5CF3C
:100AF0008F81988589393AE3930768F080918F0157
:100B000090919001019680938F0190939001C297EC
:100B100090F086E0E2CF10928F0110929001813B1D
:100B2000964348F48A89863031F41A8A8E858E304D
:100B300011F482E08E878D819E81853833E09307A2
:100B4000A0F089898160898B82E08A8B8E858230D2
:100B500019F0843009F0B8CF8BE08E8741E067E070
:100B600082E0DF91CF910C94DB0920FF12C0823527
:100B7000934078F489898E7F898B1A8A40E067E0F8
:100B800082E00E94DB098E858B3009F09DCF82E0E8
:100B90009ACF8E858B3009F097CF8A898030F5CF38
:100BA0000E94230C0C94460C83E20C94290C80E5E3
:100BB0000C94290C0C94460C853608F084E6282FFA
:100BC00030E0AFE1B3E00E94030D24E640E050E0E6
:100BD0000E94260D39BD28BD089519BC18BC40E0FF
:100BE00062E081E00E94DB0940E063E081E00C9478
:100BF000DB0941E062E081E00E94850941E063E0B9
:100C000081E00E94850941E064E083E00E9485095B
:100C10000E94ED0582E28FBD89E18EBD8FE193E0F8
:100C200097BD86BD19BC18BC08958130910551F45B
:100C300040E063E081E00E94DB0941E062E081E0A6
:100C40000C94DB09029741F440E062E081E00E94ED
:100C5000DB0941E063E0F3CF0C94ED050F931F93A4
:100C6000CF93DF930F92CDB7DEB740E062E082E032
:100C70000E94DB0941E062E082E00E94DB0964E05F
:100C800081E00E94B90BBE016F5F7F4F8FEF0E9422
:100C9000AA0B0981BE016F5F7F4F8FEF0E94AA0BE5
:100CA0002981302F890164E081E00E94BC0B00950E
:100CB000109520919401309195012017310799F4F6
:100CC000809191018230B8F48F5F809391018230DE
:100CD00091F080919601909197010F90DF91CF91C3
:100CE0001F910F910895009394011093950181E055
:100CF00080939101EECF80919601909197012817F2
:100D0000390739F38095909582239323409192017E
:100D100050919301842B952B809392019093930192
:100D20002093960130939701D4CF982F8031E0F42F
:100D300040919201509193019A0102C036952795F6
:100D40008A95E2F7822F817021E030E002C0220F05
:100D5000331F9A95E2F7209530952423352320936D
:100D6000920130939301089580E008950F931F93AB
:100D7000CF93DF930F92CDB7DEB78B01843020F590
:100D8000E82FF0E0E35DFE4FBE016F5F7F4F808193
:100D90000E94AA0B41E063E082E00E94DB0940E090
:100DA00063E082E00E94DB090130110599F0023016
:100DB0001040C1F441E065E082E00E94DB0940E0C0
:100DC00064E082E00E94DB090F90DF91CF911F91D8
:100DD0000F91089541E064E082E00E94DB0940E069
:100DE00065E0EFCF40E0F7CF40E060E081E00E94B7
:100DF000DB0940E061E081E00C94DB0941E060E068
:100E000081E00E94850941E061E081E00E9485095E
:100E100041E065E083E00E9485090E94F40660E0FD
:100E200080E197E20C94E60B60E080E197E20E949B
:100E3000E60B0C94F4068130910551F440E061E03A
:100E400081E00E94DB0941E060E081E00C94DB0975
:100E5000029741F440E060E081E00E94DB0941E05C
:100E600061E0F3CF0C94140761110C941407682F00
:100E7000853608F064E680E197E20C94E60B0C946A
:100E80001407CF93DF9300D00F92CDB7DEB78983DD
:100E90000E94850A8A839B83892B99F48EE30E94A2
:100EA000960A8A839B83892B61F480E00E94A60ABC
:100EB0008A839B83892B29F489810E94A60A8A83CD
:100EC0009B830E94930A8A819B810F900F900F90C1
:100ED000DF91CF91089541E067E083E00C94DB0956
:100EE00088E30E944107892B11F00E946B0788E379
:100EF0000E944107892B11F00E946B078CE00E9431
:100F00004107892B11F00E946B0781E00E94410785
:100F1000892B11F00E946B0786E00E944107892B04
:100F200011F00E946B0782E00E944107892B11F0AB
:100F30000C946B070895CF93DF9300D00F92CDB739
:100F4000DEB789830E94850A8A839B83892B99F463
:100F50008EE30E94960A8A839B83892B61F480E446
:100F60000E94A60A8A839B83892B29F489810E9487
:100F7000A60A8A839B830E94930A8A819B810F9091
:100F80000F900F90DF91CF910895EF92FF920F9302
:100F90001F93CF93DF9328E9E22E21E0F22E8C01FC
:100FA000C0E0F70181917F01F801D1918F018D1788
:100FB00099F080E38C0FC03108F48C2F80680E9478
:100FC000410781E090E00E94CA0B8D2F0E949B0791
:100FD000F8018291F7018293CF5FC03211F7DF9160
:100FE000CF911F910F91FF90EF9008954F925F92D4
:100FF0006F927F928F929F92AF92BF92CF92DF9229
:10100000EF92FF920F931F93CF93DF93CDB7DEB78D
:10101000A6970FB6F894DEBF0FBECDBF4C016CA3F0
:101020002DA33EA3B02E712E6C2C5D2C892B09F4C0
:101030009CC04130510509F447C04230504009F48A
:1010400046C02DE22BA36E0122E1C20ED11C40E16D
:1010500050E060E270E0C6010E944E0D40E150E0B9
:1010600060E270E08E010F5F1F4FC8010E944E0DBD
:101070001AA2198A8EA18F939DA19F932BA1922FC3
:10108000990F990B9F932F932CA11F922F938CE76D
:1010900090E09F938F931F9281E1482E4F92DF92B1
:1010A000CF920E946A0D0FB6F894DEBF0FBECDBF7F
:1010B000F7013197FC2CED2CE930F10508F08BC0DD
:1010C000EE59FF4E0C94480D8EE58BA3BCCF96E7EE
:1010D0009BA3B9CFA11499F07F92BF928BE890E0C7
:1010E0009F938F931F9281E18F931F930F930E9481
:1010F0006A0D0FB6F894DEBF0FBECDBF23C05F925E
:101100006F927F92BF9288E990E09F938F931F9296
:1011100081E18F931F930F930E946A0DEACF68EAD3
:1011200070E0A1100CC05F926F927F92BF9288EB2B
:1011300090E0EBCF96E967EC70E0A916A0F7C80144
:101140000E94550D80E1EF2DFE2DD40101900D92EE
:101150008A95E1F7D401509680E1F80101900D9253
:101160008A95E1F7C4010E94C507A6960FB6F894C8
:10117000DEBF0FBECDBFDF91CF911F910F91FF90CA
:10118000EF90DF90CF90BF90AF909F908F907F9027
:101190006F905F904F90089563ED70E0A110CFCFF6
:1011A000C2CF60EE70E0A110CACFBDCF60EF70E09B
:1011B000A110C5CFB8CF6EEF70E0A110C0CFB3CFF4
:1011C00068E071E0A110BBCFAECFA11409F4ABCFA2
:1011D00069E171E0B4CF5F926F927F92BF9288EB2A
:1011E00090E09F938F931F924F9294CFCF93DF9372
:1011F00000D0CDB7DEB719821A82BE016F5F7F4F74
:1012000081E00E946C09892B49F01092B80180E0BE
:1012100090E00F900F90DF91CF91089581E080933F
:10122000B80129813A81343010F02FEF33E0A8EE75
:10123000B3E00E94030D2FEF33E040E050E00E9446
:10124000260DC901E6CFCF93DF9300D0CDB7DEB72F
:10125000BE016F5F7F4F80E00E946C09892B91F483
:1012600029813A81A8EEB3E00E94030D2FEF33E00D
:1012700040E050E00E94260DC9010F900F90DF91D1
:10128000CF91089580E090E0F8CF8639910548F03D
:10129000823C21E0920738F08E3E924030F482E0AA
:1012A000089580E0089581E0089583E008958230F4
:1012B00010F0833071F49FEF960F973050F48295C1
:1012C000880F880F807C87B9606866B980E090E0FD
:1012D000089581E090E008958830A0F460307607AA
:1012E00089F097B1907E982B97B9349A369A3699AF
:1012F000FECF349A84B125B1FB018083218380E045
:1013000090E0089581E090E00895843008F050C0A6
:10131000683008F04DC08230E9F0833001F181304F
:1013200019F1AAE3B0E0EBE3F0E0413011F1423013
:1013300081F141113DC02C9181E001C0880F6A9577
:10134000EAF7809528232C9390818923808380E07D
:1013500090E00895A4E3B0E0E5E3F0E0E6CFA1E398
:10136000B0E0E2E3F0E0E1CFA7E3B0E0E8E3F0E0F3
:10137000DCCF2C9181E090E0AC0101C0440F6A9574
:10138000EAF7642F242B2C93808160956823608377
:10139000DECF2C9181E090E0AC0101C0440F6A9552
:1013A000EAF7842F809582238C938081842BCECF83
:1013B00081E090E00895843008F061C0683008F062
:1013C0005EC0823091F1833009F444C08130C1F0B5
:1013D000413059F48BB321E001C0220F6A95EAF73E
:1013E000822B8BBB80E090E0089508F048C02BB3BF
:1013F00081E001C0880F6A95EAF780958223F1CFDA
:10140000413049F488B321E001C0220F6A95EAF720
:10141000822B88BBE7CF98F528B381E001C0880F05
:101420006A95EAF780958223F4CF413049F485B379
:1014300021E001C0220F6A95EAF7822B85BBD2CF4B
:10144000F0F425B381E001C0880F6A95EAF7809532
:101450008223F4CF413049F482B321E001C0220F4E
:101460006A95EAF7822B82BBBDCF48F422B381E0B4
:1014700001C0880F6A95EAF780958223F4CF81E056
:1014800090E00895FA018430E0F46830D0F43097A9
:10149000C1F0823091F0833091F0813061F089B3F6
:1014A00090E002C0959587956A95E2F781708083F8
:1014B00080E090E0089586B3F3CF83B3F1CF80B39B
:1014C000EFCF81E090E008959B01AC01203032071E
:1014D00042075207B9F060E072E18AE790E00E94AB
:1014E000260D205130404040504056954795379545
:1014F000279520B90898099886B7846086BF80E050
:1015000090E0089581E090E0089584EA86BF06B6F1
:1015100007FEFDCF91B1987F21E030E0983009F4CB
:1015200020E0C901089584E986BF0895880F83B932
:1015300084E886BF06B607FEFDCF91B1987F21E013
:1015400030E0983109F420E0C901089583B984E8B6
:1015500086BF06B607FEFDCF91B1987F21E030E04F
:10156000983209F420E0C90108958FB780688FBFD1
:1015700080E090E00895813059F0823071F081115F
:1015800017C085B76370862B85BF80E090E0089513
:1015900085B7660F660F6C70F6CF623021F484B7A2
:1015A0008F7B84BFF2CF633019F484B78064F9CFA6
:1015B00081E090E00895813069F0823089F08111F6
:1015C00015C08AB780648ABF8BB780648BBF80E008
:1015D00090E008958AB780688ABF8BB78068F6CF9D
:1015E0008AB780628ABF8BB78062F0CF81E090E0DB
:1015F0000895833058F4E82FF0E0EE0FFF1FE75412
:10160000FE4F6083718380E090E0089581E090E078
:1016100008951F920F920FB60F9211242F933F93AC
:101620004F935F936F937F938F939F93AF93BF93EA
:10163000EF93FF93E091B901F091BA01309709F06F
:101640000995FF91EF91BF91AF919F918F917F91FC
:101650006F915F914F913F912F910F900FBE0F901F
:101660001F9018951F920F920FB60F9211242F936F
:101670003F934F935F936F937F938F939F93AF931A
:10168000BF93EF93FF93E091BB01F091BC013097C2
:1016900009F00995FF91EF91BF91AF919F918F91C3
:1016A0007F916F915F914F913F912F910F900FBE5E
:1016B0000F901F9018951F920F920FB60F92112442
:1016C0002F933F934F935F936F937F938F939F934A
:1016D000AF93BF93EF93FF93E091BD01F091BE01F3
:1016E000309709F00995FF91EF91BF91AF919F91CC
:1016F0008F917F916F915F914F913F912F910F90BB
:101700000FBE0F901F901895CF93C82F81E090E0E7
:10171000C430F0F441E064E081E00E94850941E0DA
:1017200065E081E00E94850940E066E081E00E947A
:10173000850941E067E081E00E94850941E064E0BD
:1017400081E00E94DB09C065CDB9709880E090E02F
:10175000CF9108956030760749F08FB9779BFECF1F
:101760008FB1FB01808380E090E0089581E090E0FC
:10177000089540E00C94DB0941E00C94DB098DE016
:1017800083BF8DE48CBF12BE89B7826089BF80E0C1
:1017900090E008954091BF015091C0016091C10156
:1017A0007091C201480F591F611D711D8091BF01C9
:1017B0009091C001A091C101B091C2018417950719
:1017C000A607B70798F380E090E008951F93CF93A2
:1017D000DF93EC01162F653698F5409781319E44D2
:1017E00078F541E065E083E00E9485099FB590733C
:1017F00092689FBD88E18EBD9E0140E050E060E0B0
:1018000072E18AE790E00E94260D2150304037BDFA
:1018100026BD26B537B5A12FB0E00E94030D24E602
:1018200030E040E050E00E94260D3BBD2ABD8EB561
:1018300081608EBD80E090E0DF91CF911F9108958F
:1018400081E090E0F9CF15BC14BC13BC80E090E0BF
:101850000895CF93C82F81E090E0C536A8F441E009
:1018600067E083E00E9485098CE685BD2C2F30E07F
:10187000AFEFB0E00E94030D24E640E050E00E948C
:10188000260D23BD80E090E0CF91089585B5887F37
:1018900085BD85B58F7C85BD13BC80E090E0089543
:1018A0001F921FB61F9211248F939F93AF93BF93E4
:1018B0008091BF019091C001A091C101B091C2017E
:1018C0000A96A11DB11D8093BF019093C001A09302
:1018D000C101B093C20181E08093C301BF91AF9178
:1018E0009F918F911F901FBE1F9018950097704079
:1018F0006040E1F09B01AC0184E0220F331F441FE4
:10190000551F8A95D1F760E072E18AE790E00E9466
:10191000260D2150304030BD29B980B5866880BD84
:101920008AB188618AB980E090E0089581E090E012
:1019300008955D9BFECF8CB980E090E008950097FC
:1019400041F05F9BFECF2CB1FC01208380E090E052
:10195000089581E090E008950F931F93CF938C0139
:10196000C0E0892B31F481E090E00BC00E94990C1B
:10197000CF5FF801EC0FF11D80818111F7CF80E07E
:1019800090E0CF911F910F91089588275F9B8395D9
:1019900090E00895811104C0579880E090E0089588
:1019A000579AFBCF8093C4019093C50180E090E0EB
:1019B00008951F920F920FB60F9211242F933F9309
:1019C0004F935F936F937F938F939F93AF93BF9347
:1019D000EF93FF938CB1E091C401F091C501309772
:1019E00009F00995FF91EF91BF91AF919F918F9170
:1019F0007F916F915F914F913F912F910F900FBE0B
:101A00000F901F901895A29FB001B39FC001A39F94
:101A1000700D811D1124911DB29F700D811D112427
:101A2000911D0895AA1BBB1B51E107C0AA1FBB1F34
:101A3000A617B70710F0A61BB70B881F991F5A955A
:101A4000A9F780959095BC01CD010895A1E21A2EC9
:101A5000AA1BBB1BFD010DC0AA1FBB1FEE1FFF1F52
:101A6000A217B307E407F50720F0A21BB30BE40BA2
:101A7000F50B661F771F881F991F1A9469F76095E9
:101A80007095809590959B01AC01BD01CF010895A3
:101A9000EE0FFF1F0590F491E02D0994DC0101C0C9
:101AA0006D9341505040E0F70895FB01DC01019037
:101AB0000D920020E1F70895FB01DC0141505040F8
:101AC00030F08D910190801919F40020B9F7881B2E
:101AD000990B0895AEE0B0E0E0E7FDE00C9429102A
:101AE0000D891E8986E08C831A8309838F89988DDE
:101AF000813020E8920710F080E090E801979E8303
:101B00008D83AE01455E5F4F698D7A8DCE01019662
:101B10000E949C0D4D815E8157FD0AC02F81388542
:101B2000421753070CF49A01020F131FF801108299
:101B30002E96E4E00C944510ABE0B0E0E2EAFDE064
:101B40000C941E106C017B018A01FC011782168225
:101B5000838181FFC9C19AE0592EF6012381F701E3
:101B600023FD859123FF81917F01811509F459C1DE
:101B7000853239F423FD959123FF91917F019532B0
:101B800029F4B60190E00E948D0FE7CF912C612CD3
:101B9000712CF0E27F1640F59B32D9F058F4903268
:101BA000D1F09332F1F09E3299F576FC3AC1689407
:101BB00076F806C09D3291F09033C1F4689470F8C5
:101BC000F70123FD959123FF91917F019111E1CFC1
:101BD00026C0689471F8689472F8F2CF689473F82C
:101BE000EFCF689474F8ECCF77FC19C080ED890FC3
:101BF0008A30C8F676FE05C0959C800D1124982E7B
:101C0000DFCF659C800D1124682E689475F8D8CFBD
:101C10009C3619F4689477F8D3CF983689F2892FD7
:101C20008F7D8554833008F488C0933609F4A4C0AE
:101C3000933709F4A7C0933509F4B3C0943619F06B
:101C4000993609F0DDC0F80177FED3C0619171913A
:101C5000819191918F01272D2F76822E97FF09C0B8
:101C600090958095709561957F4F8F4F9F4F6894A9
:101C700087F82AE030E0AE014F5F5F4F5A010E94C3
:101C8000BD0F8A19A82EBA2C782C86FE0CC0E894B9
:101C900070F8A91440F484FE05C082FC03C0F82D3E
:101CA000FE7E7F2EB92C74FEF8C0FE01EA0DF11DF8
:101CB0008081803309F0EAC0272D297E722E73FCC3
:101CC0000EC070FEF9C09A2CB61418F4960C9B182E
:101CD000B62C862D8B196B1408F480E0B80EB61460
:101CE00008F0ECC06B1874FEEBC0B60180E390E026
:101CF0000E948D0F72FE09C088E590E071FC02C061
:101D000088E790E0B6010E948D0FA91408F4E5C0A1
:101D1000AA94B12C4FEFA41AB40ACE0101964C013B
:101D2000A80EB91EF50182915F01B60190E00E94F4
:101D30008D0F8A149B04B1F715C00C5F1F4F8FE302
:101D4000898388248394912CAE014F5F5F4F5A01A1
:101D5000E89477F873FC03C08614910498F1811419
:101D60009104B9F5611409F4F8CEB60180E290E06F
:101D70000E948D0F6A94F6CFF801808189830E5FEF
:101D80001F4FDFCFF801A190B1908F01692D70E056
:101D900076FC02C06FEF7FEFC5010E94820F4C01FD
:101DA000D7CFF801A190B1908F01692D70E076FC3A
:101DB00002C06FEF7FEFC5010E94770F4C0168945E
:101DC00077F8C8CFB60180E290E00E948D0F6A9448
:101DD000C3CFF50177FC859177FE81915F01B60154
:101DE00090E00E948D0F61106A94F1E08F1A9108C3
:101DF000B6CF61917191072E000C880B990B2ACFF9
:101E0000872CE89484F82AE030E0953739F1572D93
:101E1000597F852E9037A9F058F49835A9F09F3650
:101E2000D9F0F601868197812B96EFE00C943A1059
:101E30009837B9F784FE02C0689482F820E130E058
:101E40000DC0689484F8F6CF74FE03C0852F8660B9
:101E5000882E20E132E002C028E030E0F80187FE61
:101E600010C061917191819191918F01FE01319624
:101E70005F01AF010E94BD0F8A19A82EE89487F870
:101E800002CF6191719180E090E0EFCF72FC02C0CF
:101E9000B39415CFB394B39412CF872D8678811560
:101EA00009F40DCFF5CFB60180E290E00E948D0FCE
:101EB00083948614C0F30DCF8B2CFBCF612C13CFF2
:101EC000872D8678811509F420CF80E271FC8BE2A2
:101ED00077FC8DE2B60190E016CFB60180E390E08A
:101EE0000E948D0F9A9411CF8FEF9FEF9DCFFC0131
:101EF0000590615070400110D8F7809590958E0F35
:101F00009F1F0895FC016150704001900110D8F7A7
:101F1000809590958E0F9F1F08950F931F93CF93D9
:101F2000DF93182F092FEB018B8181FD09C01FEF73
:101F30000FEF812F902FDF91CF911F910F91089577
:101F400082FF14C02E813F818C819D812817390723
:101F50003CF4E881F981CF0101969983888310834D
:101F60008E819F8101969F838E83E3CFE885F985DB
:101F7000812F0995892BA1F3DACFFA01AA272830FE
:101F800051F1203181F1E8946F936E7F6E5F7F4F46
:101F90008F4F9F4FAF4FB1E03ED0B4E03CD0670FC2
:101FA000781F891F9A1FA11D680F791F8A1F911D15
:101FB000A11D6A0F711D811D911DA11D20D009F465
:101FC00068943F912AE0269F11243019305D3193A7
:101FD000DEF6CF010895462F4770405D4193B3E090
:101FE0000FD0C9F7F6CF462F4F70405D4A3318F037
:101FF000495D31FD4052419302D0A9F7EACFB4E0E8
:10200000A6959795879577956795BA95C9F700979F
:102010006105710508959B01AC010A2E0694579540
:10202000479537952795BA95C9F7620F731F841F97
:10203000951FA01D08952F923F924F925F926F922D
:102040007F928F929F92AF92BF92CF92DF92EF9248
:10205000FF920F931F93CF93DF93CDB7DEB7CA1BC9
:10206000DB0B0FB6F894DEBF0FBECDBF09942A88F4
:10207000398848885F846E847D848C849B84AA849C
:10208000B984C884DF80EE80FD800C811B81AA8129
:10209000B981CE0FD11D0FB6F894DEBF0FBECDBFF4
:1020A000ED010895F894FFCF5401540154015401F7
:1020B0006A016E0172017D0182018A0192019A0119
:1020C000A201AA018F086A089A08D108D608CC088C
:0620D000E008E508DB0852
:1020D60002004F4B0D0A0050414745200043414C3A
:1020E6004C2000434300485500484400464C2575A3
:1020F60020256320503A2575636D00214F564552C1
:102106004C4F4144202575004C443A257520443AED
:1021160025752053544F500021454D455247454E95
:1021260043592053544F50004C443A257520443AA5
:102136002575204D4F5600214F5645525452415653
:10214600454C00214F56455243555252454E540078
:102156002154524156454C2054494D454F55540043
:1021660021444F4F522054494D454F555400214468
:102176004F4F52204A414D0021504F534954494F29
:102186004E2053454E534F5200214C4556454C2048
:102196004641494C0000002C01580284033F065B6F
:0221A6004F00E8
:00000001FF
