:100000000C942A000C94D6020C94FF020C94280342
:100010000C9447000C9447000C9447000C94470044
:100020000C9447000C9447000C9447000C94470034
:100030000C9447000C9447000C9447000C94470024
:100040000C9447000C9447000C9447000C94470014
:100050000C94470011241FBECFE5D8E0DEBFCDBF12
:1000600010E0A0E6B0E0E8E3FDE002C005900D92EC
:10007000AE3FB107D9F721E0AEEFB0E001C01D926D
:10008000A434B207E1F70E9449000C9492060C9444
:1000900000000E94510360EA76E881E090E00E944F
:1000A00085028AE090E00E9459030E94B7008AE02E
:1000B00090E00E945903812C8AE0A82EB12CC12C1B
:1000C000D12C760101ED10E021ED31E041E050E06E
:1000D00062E08EEF90E00E9441018EEF90E00E947E
:1000E0000C0186E990E00E945903839492E0C92EA6
:1000F00021ED31E041E050E062E08EEF90E00E94BF
:1001000041018EEF90E00E940C0186E990E0D1CF92
:10011000CF93DF9300D00F92CDB7DEB789830E94D3
:10012000A6028A839B83892B99F48EE30E94B702EF
:100130008A839B83892B61F480E00E94C7028A83B3
:100140009B83892B29F489810E94C7028A839B8320
:100150000E94B4028A819B810F900F900F90DF91D3
:10016000CF91089541E067E083E00C941E0288E39C
:100170000E948800892B11F00E94B20088E30E943F
:100180008800892B11F00E94B2008CE00E94880048
:10019000892B11F00E94B20081E00E948800892B17
:1001A00011F00E94B20086E00E948800892B11F0B5
:1001B0000E94B20082E00E948800892B11F00C940A
:1001C000B2000895CF93DF9300D00F92CDB7DEB782
:1001D00089830E94A6028A839B83892B99F48EE3EC
:1001E0000E94B7028A839B83892B61F480E40E947A
:1001F000C7028A839B83892B29F489810E94C702C5
:100200008A839B830E94B4028A819B810F900F9006
:100210000F90DF91CF910895EF92FF920F931F936C
:10022000CF93DF932EE1E22E21E0F22E8C01C0E08D
:10023000F70181917F01F801D1918F018D17B9F0FC
:1002400080E38C0FC03108F48C2F80680E948800F6
:1002500081E090E00E9459038D2F0E94E20081E02E
:1002600090E00E945903F8018291F7018293CF5FD9
:10027000C032F1F6DF91CF911F910F91FF90EF9077
:1002800008958F929F92AF92BF92CF92DF92EF929A
:10029000FF920F931F93CF93DF93CDB7DEB7A9974C
:1002A0000FB6F894DEBF0FBECDBF5C01962E2CA317
:1002B0003DA30EA31FA3C8A6D9A6892B09F46FC01E
:1002C0004130510509F447C04230504009F446C05E
:1002D0002DE22BA38E010E5E1F4F40E150E060E245
:1002E00070E0C8010E949C0340E150E060E270E0D1
:1002F0006E012FEFC21AD20AC6010E949C031AA2F5
:10030000198A8DA18F939CA19F932BA1922F990F56
:10031000990B9F932F931F929F9280E690E09F935B
:100320008F931F9281E1982E9F921F930F930E94AB
:10033000AA030FB6F894DEBF0FBECDBFF701319709
:10034000F12E1C2DED2CE830F10508F05FC0EC56C5
:10035000F94F0C9496038EE58BA3BCCF96E79BA335
:10036000B9CF6FE670E0811002C06FE770E0812FB7
:100370009E2D0E94A30380E1E02FFF2DD501019067
:100380000D928A95E1F7D501509680E1E12FFE2D7F
:1003900001900D928A95E1F7C5010E940C01A99682
:1003A0000FB6F894DEBF0FBECDBFDF91CF911F9186
:1003B0000F91FF90EF90DF90CF90BF90AF909F9004
:1003C0008F90089560E970E08110D1CFCECF6CE9B5
:1003D00070E08110CCCFC9CF69EA70E08110C7CF3F
:1003E000C4CF69EB70E08110C2CFBFCF67EC70E083
:1003F0008110BDCFBACF811409F4B7CF61ED70E0A1
:10040000B6CF62EE70E08110B2CFAFCF99A59F93C7
:1004100028A52F938FA18F939EA19F938EEE90E09E
:100420009F938F931F929F92DF92CF920E94AA0375
:100430000FB6F894DEBF0FBECDBF9DCF843008F05D
:1004400061C0683008F05EC0823091F1833009F4F9
:1004500044C08130C1F0413059F48BB321E001C078
:10046000220F6A95EAF7822B8BBB80E090E008951B
:1004700008F048C02BB381E001C0880F6A95EAF705
:1004800080958223F1CF413049F488B321E001C047
:10049000220F6A95EAF7822B88BBE7CF98F528B33D
:1004A00081E001C0880F6A95EAF780958223F4CF36
:1004B000413049F485B321E001C0220F6A95EAF783
:1004C000822B85BBD2CFF0F425B381E001C0880F29
:1004D0006A95EAF780958223F4CF413049F482B3DC
:1004E00021E001C0220F6A95EAF7822B82BBBDCFC3
:1004F00048F422B381E001C0880F6A95EAF780953D
:100500008223F4CF81E090E008959B01AC0120307C
:10051000320742075207B9F060E072E18AE790E0E3
:100520000E947403205130404040504056954795FA
:100530003795279520B90898099886B7846086BFB3
:1005400080E090E0089581E090E0089584EA86BF1D
:1005500006B607FEFDCF91B1987F21E030E09830DC
:1005600009F420E0C901089584E986BF0895880F41
:1005700083B984E886BF06B607FEFDCF91B1987FA8
:1005800021E030E0983109F420E0C901089583B9F1
:1005900084E886BF06B607FEFDCF91B1987F21E0C3
:1005A00030E0983209F420E0C90108951F920F92BB
:1005B0000FB60F9211242F933F934F935F936F9336
:1005C0007F938F939F93AF93BF93EF93FF93E091AC
:1005D0003E01F0913F01309709F00995FF91EF91AD
:1005E000BF91AF919F918F917F916F915F914F914B
:1005F0003F912F910F900FBE0F901F9018951F9253
:100600000F920FB60F9211242F933F934F935F9346
:100610006F937F938F939F93AF93BF93EF93FF93CA
:10062000E0914001F0914101309709F00995FF9167
:10063000EF91BF91AF919F918F917F916F915F915A
:100640004F913F912F910F900FBE0F901F901895D3
:100650001F920F920FB60F9211242F933F934F9337
:100660005F936F937F938F939F93AF93BF93EF931A
:10067000FF93E0914201F0914301309709F0099511
:10068000FF91EF91BF91AF919F918F917F916F916A
:100690005F914F913F912F910F900FBE0F901F9040
:1006A00018958DE083BF8DE48CBF12BE80E090E092
:1006B0000895AC0198B7926098BF93B7987F956002
:1006C00093BF20E030E082E02417350731F483B790
:1006D000887F83BF80E090E0089508B601FEFDCFDB
:1006E00088BF2F5F3F4FF0CFA1E21A2EAA1BBB1B82
:1006F000FD010DC0AA1FBB1FEE1FFF1FA217B307EE
:10070000E407F50720F0A21BB30BE40BF50B661F03
:10071000771F881F991F1A9469F7609570958095C7
:1007200090959B01AC01BD01CF010895EE0FFF1F15
:100730000590F491E02D0994DC0101C06D934150C6
:100740005040E0F70895FB01DC0101900D9200207C
:10075000E1F70895AEE0B0E0E0EBF3E00C94690659
:100760000D891E8986E08C831A8309838F89988D71
:10077000813020E8920710F080E090E801979E8396
:100780008D83AE01455E5F4F698D7A8DCE010196F6
:100790000E94DC034D815E8157FD0AC02F813885A0
:1007A000421753070CF49A01020F131FF80110822D
:1007B0002E96E4E00C948506ABE0B0E0E2EEF3E0C8
:1007C0000C945E066C017B018A01FC011782168283
:1007D000838181FFC9C19AE0592EF6012381F70177
:1007E00023FD859123FF81917F01811509F459C172
:1007F000853239F423FD959123FF91917F01953244
:1008000029F4B60190E00E94CD05E7CF912C612C30
:10081000712CF0E27F1640F59B32D9F058F49032FB
:10082000D1F09332F1F09E3299F576FC3AC168949A
:1008300076F806C09D3291F09033C1F4689470F858
:10084000F70123FD959123FF91917F019111E1CF54
:1008500026C0689471F8689472F8F2CF689473F8BF
:10086000EFCF689474F8ECCF77FC19C080ED890F56
:100870008A30C8F676FE05C0959C800D1124982E0E
:10088000DFCF659C800D1124682E689475F8D8CF51
:100890009C3619F4689477F8D3CF983689F2892F6B
:1008A0008F7D8554833008F488C0933609F4A4C042
:1008B000933709F4A7C0933509F4B3C0943619F0FF
:1008C000993609F0DDC0F80177FED3C061917191CE
:1008D000819191918F01272D2F76822E97FF09C04C
:1008E00090958095709561957F4F8F4F9F4F68943D
:1008F00087F82AE030E0AE014F5F5F4F5A010E9457
:10090000FD058A19A82EBA2C782C86FE0CC0E89416
:1009100070F8A91440F484FE05C082FC03C0F82DD1
:10092000FE7E7F2EB92C74FEF8C0FE01EA0DF11D8B
:100930008081803309F0EAC0272D297E722E73FC56
:100940000EC070FEF9C09A2CB61418F4960C9B18C1
:10095000B62C862D8B196B1408F480E0B80EB614F3
:1009600008F0ECC06B1874FEEBC0B60180E390E0B9
:100970000E94CD0572FE09C088E590E071FC02C0BE
:1009800088E790E0B6010E94CD05A91408F4E5C0FF
:10099000AA94B12C4FEFA41AB40ACE0101964C01CF
:1009A000A80EB91EF50182915F01B60190E00E9488
:1009B000CD058A149B04B1F715C00C5F1F4F8FE360
:1009C000898388248394912CAE014F5F5F4F5A0135
:1009D000E89477F873FC03C08614910498F18114AD
:1009E0009104B9F5611409F4F8CEB60180E290E003
:1009F0000E94CD056A94F6CFF801808189830E5F4D
:100A00001F4FDFCFF801A190B1908F01692D70E0E9
:100A100076FC02C06FEF7FEFC5010E94C2054C015A
:100A2000D7CFF801A190B1908F01692D70E076FCCD
:100A300002C06FEF7FEFC5010E94B7054C016894BB
:100A400077F8C8CFB60180E290E00E94CD056A94A5
:100A5000C3CFF50177FC859177FE81915F01B601E7
:100A600090E00E94CD0561106A94F1E08F1A910820
:100A7000B6CF61917191072E000C880B990B2ACF8C
:100A8000872CE89484F82AE030E0953739F1572D27
:100A9000597F852E9037A9F058F49835A9F09F36E4
:100AA000D9F0F601868197812B96EFE00C947A06B7
:100AB0009837B9F784FE02C0689482F820E130E0EC
:100AC0000DC0689484F8F6CF74FE03C0852F86604D
:100AD000882E20E132E002C028E030E0F80187FEF5
:100AE00010C061917191819191918F01FE013196B8
:100AF0005F01AF010E94FD058A19A82EE89487F8CE
:100B000002CF6191719180E090E0EFCF72FC02C062
:100B1000B39415CFB394B39412CF872D86788115F3
:100B200009F40DCFF5CFB60180E290E00E94CD052B
:100B300083948614C0F30DCF8B2CFBCF612C13CF85
:100B4000872D8678811509F420CF80E271FC8BE235
:100B500077FC8DE2B60190E016CFB60180E390E01D
:100B60000E94CD059A9411CF8FEF9FEF9DCFFC018E
:100B70000590615070400110D8F7809590958E0FC8
:100B80009F1F0895FC016150704001900110D8F73B
:100B9000809590958E0F9F1F08950F931F93CF936D
:100BA000DF93182F092FEB018B8181FD09C01FEF07
:100BB0000FEF812F902FDF91CF911F910F9108950B
:100BC00082FF14C02E813F818C819D8128173907B7
:100BD0003CF4E881F981CF010196998388831083E1
:100BE0008E819F8101969F838E83E3CFE885F9856F
:100BF000812F0995892BA1F3DACFFA01AA27283092
:100C000051F1203181F1E8946F936E7F6E5F7F4FD9
:100C10008F4F9F4FAF4FB1E03ED0B4E03CD0670F55
:100C2000781F891F9A1FA11D680F791F8A1F911DA8
:100C3000A11D6A0F711D811D911DA11D20D009F4F8
:100C400068943F912AE0269F11243019305D31933A
:100C5000DEF6CF010895462F4770405D4193B3E023
:100C60000FD0C9F7F6CF462F4F70405D4A3318F0CA
:100C7000495D31FD4052419302D0A9F7EACFB4E07B
:100C8000A6959795879577956795BA95C9F7009733
:100C90006105710508959B01AC010A2E06945795D4
:100CA000479537952795BA95C9F7620F731F841F2B
:100CB000951FA01D08952F923F924F925F926F92C1
:100CC0007F928F929F92AF92BF92CF92DF92EF92DC
:100CD000FF920F931F93CF93DF93CDB7DEB7CA1B5D
:100CE000DB0B0FB6F894DEBF0FBECDBF09942A8888
:100CF000398848885F846E847D848C849B84AA8430
:100D0000B984C884DF80EE80FD800C811B81AA81BC
:100D1000B981CE0FD11D0FB6F894DEBF0FBECDBF87
:100D2000ED010895F894FFCFB101E201EC01F1016A
:080D3000E701FB010102F601DD
:100D3800464C257520256320503A2575636D0021A2
:100D4800454D455247454E43592053544F50002076
:100D580020202020202020202020202020202000AB
:100D6800214F56455254524156454C00214F564545
:100D78005243555252454E54002154524156454C07
:100D88002054494D454F55540021444F4F5220544B
:100D9800494D454F55540021444F4F52204A414D2B
:100DA8000021504F534954494F4E2053454E534FFD
:100DB8005200214C4556454C204641494C004C4474
:0E0DC8003A257520443A2575204D4F560000FF
:00000001FF
