:100000000C942A000C9442010C946B010C94940102
:100010000C9447000C9447000C9447000C94470044
:100020000C9447000C9447000C941B020C9447005E
:100030000C9447000C9447000C9447000C94470024
:100040000C9447000C9447000C9447000C94470014
:100050000C94470011241FBECFE5D8E0DEBFCDBF12
:1000600010E0A0E6B0E0ECEDF4E002C005900D92E7
:10007000A036B107D9F720E0A0E6B0E001C01D929C
:10008000A736B207E1F70E9449000C946C020C9469
:10009000000060E875E280E090E00E9421020E948A
:1000A000F80180E00E94BD010E945D000E944402B0
:1000B00088EE93E00E940002F7CF0F931F93CF9337
:1000C000DF930F92CDB7DEB740E062E082E00E949E
:1000D000DB0041E062E082E00E94DB0064E081E05E
:1000E0000E94F201BE016F5F7F4F8FEF0E94E3011C
:1000F0000981BE016F5F7F4F8FEF0E94E30129816D
:10010000302F890164E081E00E94F501C8010F9061
:10011000DF91CF911F910F910895843008F048C06E
:10012000683008F045C09FEF980F9330E8F4282F0F
:100130003DEF3203F0011124DF01DB96FA964130E6
:10014000C1F0423031F1411133C0208181E001C062
:10015000880F6A95EAF78095282320839C9189234C
:100160008C9380E090E00895EAE3F0E0ABE3B0E048
:10017000E6CF208181E090E0AC0101C0440F6A9598
:10018000EAF7642F242B20838C91609568236C936D
:10019000E8CF208181E090E0AC0101C0440F6A9576
:1001A000EAF7842F8095822380838C91842BD8CF8B
:1001B00081E090E00895843008F061C0683008F074
:1001C0005EC0823091F1833009F444C08130C1F0C7
:1001D000413059F48BB321E001C0220F6A95EAF750
:1001E000822B8BBB80E090E0089508F048C02BB3D1
:1001F00081E001C0880F6A95EAF780958223F1CFEC
:10020000413049F488B321E001C0220F6A95EAF732
:10021000822B88BBE7CF98F528B381E001C0880F17
:100220006A95EAF780958223F4CF413049F485B38B
:1002300021E001C0220F6A95EAF7822B85BBD2CF5D
:10024000F0F425B381E001C0880F6A95EAF7809544
:100250008223F4CF413049F482B321E001C0220F60
:100260006A95EAF7822B82BBBDCF48F422B381E0C6
:1002700001C0880F6A95EAF780958223F4CF81E068
:1002800090E008951F920F920FB60F9211242F93B2
:100290003F934F935F936F937F938F939F93AF930E
:1002A000BF93EF93FF93E0916000F091610030976E
:1002B00009F00995FF91EF91BF91AF919F918F91B7
:1002C0007F916F915F914F913F912F910F900FBE52
:1002D0000F901F9018951F920F920FB60F92112436
:1002E0002F933F934F935F936F937F938F939F933E
:1002F000AF93BF93EF93FF93E0916200F09163009F
:10030000309709F00995FF91EF91BF91AF919F91BF
:100310008F917F916F915F914F913F912F910F90AE
:100320000FBE0F901F9018951F920F920FB60F924D
:1003300011242F933F934F935F936F937F938F93EA
:100340009F93AF93BF93EF93FF93E0916400F0917D
:100350006500309709F00995FF91EF91BF91AF913A
:100360009F918F917F916F915F914F913F912F91CD
:100370000F900FBE0F901F901895CF93C82F81E05C
:1003800090E0C430F0F441E064E081E00E948D0030
:1003900041E065E081E00E948D0040E066E081E0A0
:1003A0000E948D0041E067E081E00E948D0041E005
:1003B00064E081E00E94DB00C065CDB9709880E008
:1003C00090E0CF9108956115710549F08FB9779B41
:1003D000FECF8FB1FB01808380E090E0089581E043
:1003E00090E0089540E00C94DB0041E00C94DB00C9
:1003F0008DE083BF8DE48CBF12BE80E090E0089555
:10040000AC0198B7926098BF93B7987F956093BFFF
:1004100020E030E082E02417350731F483B7887F8D
:1004200083BF80E090E0089508B601FEFDCF88BF4D
:100430002F5F3F4FF0CF8F9381E0809366008F91C5
:100440001895009770406040E1F09B01AC0184E09A
:10045000220F331F441F551F8A95D1F760E072E1C8
:100460008AE790E00E944A022150310930BD29B943
:1004700080B5866880BD8AB188618AB980E090E0E5
:10048000089581E090E008955D9BFECF8CB980E0F7
:1004900090E00895A1E21A2EAA1BBB1BFD010DC01E
:1004A000AA1FBB1FEE1FFF1FA217B307E407F50724
:1004B00020F0A21BB30BE40BF50B661F771F881F00
:1004C000991F1A9469F760957095809590959B0196
:0C04D000AC01BD01CF010895F894FFCFEE
:00000001FF
