:100000000C942A000C943A010C9463010C948C011A
:100010000C9447000C9447000C9447000C94470044
:100020000C9447000C9447000C9447000C94470034
:100030000C9447000C9447000C9447000C94470024
:100040000C9447000C9447000C9447000C94470014
:100050000C94470011241FBECFE5D8E0DEBFCDBF12
:1000600010E0A0E6B0E0E2EBF4E002C005900D92F3
:10007000A036B107D9F720E0A0E6B0E001C01D929C
:10008000A636B207E1F70E9449000C9457020C947F
:10009000000060E875E280E090E00E940C020E949F
:1000A000EA0180E00E94B50164E081E00E945F0007
:1000B0000E942F0288EE93E00E94F201F5CFCF93C9
:1000C000DF9300D00F92CDB7DEB78A836B8319829E
:1000D00040E00E94D30041E06B818A810E94D300FE
:1000E000BE016F5F7F4F8FEF0E94DB0189810F9010
:1000F0000F900F90DF91CF910895843008F050C099
:10010000683008F04DC08230E9F0833001F1813071
:1001100019F1AAE3B0E0EBE3F0E0413011F1423035
:1001200081F141113DC02C9181E001C0880F6A9599
:10013000EAF7809528232C9390818923808380E09F
:1001400090E00895A4E3B0E0E5E3F0E0E6CFA1E3BA
:10015000B0E0E2E3F0E0E1CFA7E3B0E0E8E3F0E015
:10016000DCCF2C9181E090E0AC0101C0440F6A9596
:10017000EAF7642F242B2C93808160956823608399
:10018000DECF2C9181E090E0AC0101C0440F6A9574
:10019000EAF7842F809582238C938081842BCECFA5
:1001A00081E090E00895843008F061C0683008F084
:1001B0005EC0823091F1833009F444C08130C1F0D7
:1001C000413059F48BB321E001C0220F6A95EAF760
:1001D000822B8BBB80E090E0089508F048C02BB3E1
:1001E00081E001C0880F6A95EAF780958223F1CFFC
:1001F000413049F488B321E001C0220F6A95EAF743
:10020000822B88BBE7CF98F528B381E001C0880F27
:100210006A95EAF780958223F4CF413049F485B39B
:1002200021E001C0220F6A95EAF7822B85BBD2CF6D
:10023000F0F425B381E001C0880F6A95EAF7809554
:100240008223F4CF413049F482B321E001C0220F70
:100250006A95EAF7822B82BBBDCF48F422B381E0D6
:1002600001C0880F6A95EAF780958223F4CF81E078
:1002700090E008951F920F920FB60F9211242F93C2
:100280003F934F935F936F937F938F939F93AF931E
:10029000BF93EF93FF93E0916000F091610030977E
:1002A00009F00995FF91EF91BF91AF919F918F91C7
:1002B0007F916F915F914F913F912F910F900FBE62
:1002C0000F901F9018951F920F920FB60F92112446
:1002D0002F933F934F935F936F937F938F939F934E
:1002E000AF93BF93EF93FF93E0916200F0916300AF
:1002F000309709F00995FF91EF91BF91AF919F91D0
:100300008F917F916F915F914F913F912F910F90BE
:100310000FBE0F901F9018951F920F920FB60F925D
:1003200011242F933F934F935F936F937F938F93FA
:100330009F93AF93BF93EF93FF93E0916400F0918D
:100340006500309709F00995FF91EF91BF91AF914A
:100350009F918F917F916F915F914F913F912F91DD
:100360000F900FBE0F901F901895CF93C82F81E06C
:1003700090E0C430F0F441E064E081E00E947D0050
:1003800041E065E081E00E947D0040E066E081E0C0
:100390000E947D0041E067E081E00E947D0041E035
:1003A00064E081E00E94D300C065CDB9709880E020
:1003B00090E0CF9108956030760749F08FB9779B30
:1003C000FECF8FB1FB01808380E090E0089581E053
:1003D00090E0089588E083BF8CE78CBF12BE80E078
:1003E00090E00895AC0198B7926098BF93B793607E
:1003F00093BF20E030E082E02417350731F483B763
:10040000887F83BF80E090E0089508B601FEFDCFAD
:1004100088BF2F5F3F4FF0CF009770406040E1F002
:100420009B01AC0184E0220F331F441F551F8A95A6
:10043000D1F760E072E18AE790E00E943502215036
:10044000304030BD29B980B5866880BD8AB18861E9
:100450008AB980E090E0089581E090E008955D9B86
:10046000FECF8CB980E090E00895A1E21A2EAA1B7D
:10047000BB1BFD010DC0AA1FBB1FEE1FFF1FA21754
:10048000B307E407F50720F0A21BB30BE40BF50B51
:10049000661F771F881F991F1A9469F760957095DA
:1004A000809590959B01AC01BD01CF010895F89412
:0204B000FFCF7C
:00000001FF
