:100000000C942A000C94EC000C9415010C943E0105
:100010000C9447000C9447000C9447000C94470044
:100020000C9447000C9447000C9447000C94470034
:100030000C9447000C9447000C9447000C94470024
:100040000C9447000C9447000C9447000C94470014
:100050000C94470011241FBECFE5D8E0DEBFCDBF12
:1000600010E0A0E6B0E0EAE7F3E002C005900D92F0
:10007000A036B107D9F720E0A0E6B0E001C01D929C
:10008000A636B207E1F70E9449000C94BB010C941C
:10009000000000D0CDB7DEB70E94670166E080E0C7
:1000A0000E946A00BE016F5F7F4F80E00E947F0068
:1000B00029813A81A4E6B0E00E948A01A92F982FF5
:1000C000872FA69597958795A695979587950E94D2
:1000D0006D01E8CF823010F0833071F49FEF960FFE
:1000E000973050F48295880F880F807C87B96068BC
:1000F00066B980E090E0089581E090E0089588304E
:1001000090F46030760779F097B1982B97B9369ACA
:10011000349BFECF349A84B125B1FB0180832183C7
:1001200080E090E0089581E090E00895843008F048
:1001300050C0683008F04DC08230E9F0833001F1E2
:10014000813019F1AAE3B0E0EBE3F0E0413011F1C6
:10015000423081F141113DC02C9181E001C0880FF6
:100160006A95EAF7809528232C93908189238083D0
:1001700080E090E00895A4E3B0E0E5E3F0E0E6CFAE
:10018000A1E3B0E0E2E3F0E0E1CFA7E3B0E0E8E331
:10019000F0E0DCCF2C9181E090E0AC0101C0440F95
:1001A0006A95EAF7642F242B2C938081609568234D
:1001B0006083DECF2C9181E090E0AC0101C0440F60
:1001C0006A95EAF7842F809582238C938081842B13
:1001D000CECF81E090E008951F920F920FB60F925C
:1001E00011242F933F934F935F936F937F938F933C
:1001F0009F93AF93BF93EF93FF93E0916000F091D3
:100200006100309709F00995FF91EF91BF91AF918F
:100210009F918F917F916F915F914F913F912F911E
:100220000F900FBE0F901F9018951F920F920FB650
:100230000F9211242F933F934F935F936F937F936C
:100240008F939F93AF93BF93EF93FF93E0916200DF
:10025000F0916300309709F00995FF91EF91BF91FC
:10026000AF919F918F917F916F915F914F913F914E
:100270002F910F900FBE0F901F9018951F920F9205
:100280000FB60F9211242F933F934F935F936F9369
:100290007F938F939F93AF93BF93EF93FF93E091DF
:1002A0006400F0916500309709F00995FF91EF9196
:1002B000BF91AF919F918F917F916F915F914F917E
:1002C0003F912F910F900FBE0F901F90189515BC66
:1002D00014BC13BC80E090E00895CF93C82F81E058
:1002E00090E0C536A8F441E067E083E00E94960004
:1002F0008CE685BD2C2F30E0AFEFB0E00E948A0184
:1003000024E640E050E00E94990123BD80E090E0A7
:10031000CF910895A29FB001B39FC001A39F700D1C
:10032000811D1124911DB29F700D811D1124911DFD
:100330000895A1E21A2EAA1BBB1BFD010DC0AA1F26
:10034000BB1FEE1FFF1FA217B307E407F50720F03E
:10035000A21BB30BE40BF50B661F771F881F991FB9
:100360001A9469F760957095809590959B01AC0102
:0A037000BD01CF010895F894FFCFFE
:00000001FF
