:100000000C942A000C943E010C9467010C9490010E
:100010000C9447000C9447000C9447000C94470044
:100020000C9447000C9447000C9447000C94470034
:100030000C9447000C9447000C9447000C94470024
:100040000C9447000C9447000C9447000C94470014
:100050000C94470011241FBECFE5D8E0DEBFCDBF12
:1000600010E0A0E6B0E0EAEAF3E002C005900D92ED
:10007000A036B107D9F720E0A0E6B0E001C01D929C
:10008000A636B207E1F70E944D000C94D3010C9400
:10009000000067E080E00C94C40041E064E080E090
:1000A0000E946E0041E067E080E00E946E0061E027
:1000B00080E00E94F00069E470E080E00E942E0180
:1000C00080E00E9410010E94EA0064E080E00E944B
:1000D000C40088EE93E00E94B901F7CF843008F0A5
:1000E00050C0683008F04DC08230E9F0833001F133
:1000F000813019F1AAE3B0E0EBE3F0E0413011F117
:10010000423081F141113DC02C9181E001C0880F46
:100110006A95EAF7809528232C9390818923808320
:1001200080E090E00895A4E3B0E0E5E3F0E0E6CFFE
:10013000A1E3B0E0E2E3F0E0E1CFA7E3B0E0E8E381
:10014000F0E0DCCF2C9181E090E0AC0101C0440FE5
:100150006A95EAF7642F242B2C938081609568239D
:100160006083DECF2C9181E090E0AC0101C0440FB0
:100170006A95EAF7842F809582238C938081842B63
:10018000CECF81E090E00895843008F56830F8F42F
:1001900021E030E0A90101C0440F6A95EAF78230FE
:1001A00071F0833081F0813031F08BB384278BBBC9
:1001B00080E090E0089588B3842788BBF9CF85B3A9
:1001C000842785BBF5CF82B3842782BBF1CF81E042
:1001D00090E008958FB780688FBF80E090E0089529
:1001E000813059F0823071F0811117C085B763708A
:1001F000862B85BF80E090E0089585B7660F660F77
:100200006C70F6CF623021F484B78F7B84BFF2CF5D
:10021000633019F484B78064F9CF81E090E00895E9
:10022000813069F0823089F0811115C08AB780640D
:100230008ABF8BB780648BBF80E090E008958AB757
:1002400080688ABF8BB78068F6CF8AB780628ABF22
:100250008BB78062F0CF81E090E00895833058F44E
:10026000E82FF0E0EE0FFF1FE05AFF4F608371832D
:1002700080E090E0089581E090E008951F920F9251
:100280000FB60F9211242F933F934F935F936F9369
:100290007F938F939F93AF93BF93EF93FF93E091DF
:1002A0006000F0916100309709F00995FF91EF919E
:1002B000BF91AF919F918F917F916F915F914F917E
:1002C0003F912F910F900FBE0F901F9018951F9286
:1002D0000F920FB60F9211242F933F934F935F937A
:1002E0006F937F938F939F93AF93BF93EF93FF93FE
:1002F000E0916200F0916300309709F00995FF9159
:10030000EF91BF91AF919F918F917F916F915F918D
:100310004F913F912F910F900FBE0F901F90189506
:100320001F920F920FB60F9211242F933F934F936A
:100330005F936F937F938F939F93AF93BF93EF934D
:10034000FF93E0916400F0916500309709F0099502
:10035000FF91EF91BF91AF919F918F917F916F919D
:100360005F914F913F912F910F900FBE0F901F9073
:100370001895AC0198B7926098BF93B7936093BFFC
:1003800020E030E082E02417350731F483B7887F1E
:1003900083BF80E090E0089508B601FEFDCF88BFDE
:0A03A0002F5F3F4FF0CFF894FFCF1E
:00000001FF
