:100000000C942A000C94D8010C9401020C942A023E
:100010000C9447000C9447000C9447000C94470044
:100020000C9447000C9447000C9447000C94470034
:100030000C9447000C9447000C9447000C94470024
:100040000C9447000C9447000C9447000C94470014
:100050000C94470011241FBECFE5D8E0DEBFCDBF12
:1000600010E0A0E6B0E0E4E3F5E002C005900D92F8
:10007000A036B107D9F720E0A0E6B0E001C01D929C
:10008000A636B207E1F70E9449000C9498020C943E
:1000900000000E94530260EA76E881E090E00E944E
:1000A00087018AE090E00E945B020E9492008AE051
:1000B00090E00E945B0248EC50E060E070E082E07B
:1000C0000E94E700FFCFCF93DF9300D00F92CDB710
:1000D000DEB789830E94A8018A839B83892B99F4C8
:1000E0008EE30E94B9018A839B83892B61F480E0AF
:1000F0000E94C9018A839B83892B29F489810E94EC
:10010000C9018A839B830E94B6018A819B810F90DB
:100110000F900F90DF91CF91089541E067E083E069
:100120000C94200188E30E946300892B11F00E9447
:100130008D0088E30E946300892B11F00E948D00DE
:100140008CE00E946300892B11F00E948D0081E0F9
:100150000E946300892B11F00E948D0086E00E94AE
:100160006300892B11F00E948D0082E00E946300E1
:10017000892B11F00C948D000895CF93DF9300D05C
:100180000F92CDB7DEB789830E94A8018A839B8333
:10019000892B99F48EE30E94B9018A839B83892B72
:1001A00061F480E40E94C9018A839B83892B29F42E
:1001B00089810E94C9018A839B830E94B6018A813A
:1001C0009B810F900F900F90DF91CF910895CF9367
:1001D000DF9300D00F92CDB7DEB789836A837B832C
:1001E00086E40E94BD0081E090E00E945B028CE406
:1001F0000E94BD0081E090E00E945B028981805DE9
:100200000E94BD0081E090E00E945B0280E20E94BB
:10021000BD0081E090E00E945B028A819B81813079
:10022000910551F0029751F486E70F900F900F90CF
:10023000DF91CF910C94BD008EE5F7CF8DE2F5CF25
:10024000843008F061C0683008F05EC0823091F1FF
:10025000833009F444C08130C1F0413059F48BB38C
:1002600021E001C0220F6A95EAF7822B8BBB80E068
:1002700090E0089508F048C02BB381E001C0880FDA
:100280006A95EAF780958223F1CF413049F488B32B
:1002900021E001C0220F6A95EAF7822B88BBE7CFE5
:1002A00098F528B381E001C0880F6A95EAF7809538
:1002B0008223F4CF413049F485B321E001C0220FFD
:1002C0006A95EAF7822B85BBD2CFF0F425B381E0A3
:1002D00001C0880F6A95EAF780958223F4CF4130F8
:1002E00049F482B321E001C0220F6A95EAF7822B1C
:1002F00082BBBDCF48F422B381E001C0880F6A956C
:10030000EAF780958223F4CF81E090E008959B0185
:10031000AC012030320742075207B9F060E072E1C9
:100320008AE790E00E9476022051304040405040E1
:10033000569547953795279520B90898099886B717
:10034000846086BF80E090E0089581E090E00895A9
:1003500084EA86BF06B607FEFDCF91B1987F21E003
:1003600030E0983009F420E0C901089584E986BF9F
:100370000895880F83B984E886BF06B607FEFDCFCF
:1003800091B1987F21E030E0983109F420E0C90173
:10039000089583B984E886BF06B607FEFDCF91B104
:1003A000987F21E030E0983209F420E0C9010895F7
:1003B0001F920F920FB60F9211242F933F934F93DA
:1003C0005F936F937F938F939F93AF93BF93EF93BD
:1003D000FF93E0916000F0916100309709F009957A
:1003E000FF91EF91BF91AF919F918F917F916F910D
:1003F0005F914F913F912F910F900FBE0F901F90E3
:1004000018951F920F920FB60F9211242F933F93BE
:100410004F935F936F937F938F939F93AF93BF930C
:10042000EF93FF93E0916200F0916300309709F041
:100430000995FF91EF91BF91AF919F918F917F911E
:100440006F915F914F913F912F910F900FBE0F9041
:100450001F9018951F920F920FB60F9211242F9391
:100460003F934F935F936F937F938F939F93AF933C
:10047000BF93EF93FF93E0916400F0916500309794
:1004800009F00995FF91EF91BF91AF919F918F91E5
:100490007F916F915F914F913F912F910F900FBE80
:1004A0000F901F9018958DE083BF8DE48CBF12BE16
:1004B00080E090E00895AC0198B7926098BF93B740
:1004C000987F956093BF20E030E082E024173507E5
:1004D00031F483B7887F83BF80E090E0089508B649
:1004E00001FEFDCF88BF2F5F3F4FF0CFA1E21A2E54
:1004F000AA1BBB1BFD010DC0AA1FBB1FEE1FFF1FC8
:10050000A217B307E407F50720F0A21BB30BE40B17
:10051000F50B661F771F881F991F1A9469F760955E
:100520007095809590959B01AC01BD01CF01089518
:04053000F894FFCF6D
:00000001FF
